{
	"solidity Project/Event Organization/Event.sol": {
		"EventContract": {
			"abi": [
				{
					"inputs": [
						{
							"internalType": "uint256",
							"name": "_id",
							"type": "uint256"
						},
						{
							"internalType": "uint256",
							"name": "quantity",
							"type": "uint256"
						}
					],
					"name": "buyTicket",
					"outputs": [],
					"stateMutability": "payable",
					"type": "function"
				},
				{
					"inputs": [
						{
							"internalType": "string",
							"name": "_name",
							"type": "string"
						},
						{
							"internalType": "uint256",
							"name": "_date",
							"type": "uint256"
						},
						{
							"internalType": "uint256",
							"name": "_price",
							"type": "uint256"
						},
						{
							"internalType": "uint256",
							"name": "_ticketCount",
							"type": "uint256"
						}
					],
					"name": "createEvent",
					"outputs": [],
					"stateMutability": "nonpayable",
					"type": "function"
				},
				{
					"inputs": [
						{
							"internalType": "uint256",
							"name": "",
							"type": "uint256"
						}
					],
					"name": "events",
					"outputs": [
						{
							"internalType": "address",
							"name": "organizer",
							"type": "address"
						},
						{
							"internalType": "string",
							"name": "name",
							"type": "string"
						},
						{
							"internalType": "uint256",
							"name": "date",
							"type": "uint256"
						},
						{
							"internalType": "uint256",
							"name": "price",
							"type": "uint256"
						},
						{
							"internalType": "uint256",
							"name": "ticketCount",
							"type": "uint256"
						},
						{
							"internalType": "uint256",
							"name": "ticketRemain",
							"type": "uint256"
						}
					],
					"stateMutability": "view",
					"type": "function"
				},
				{
					"inputs": [],
					"name": "nextID",
					"outputs": [
						{
							"internalType": "uint256",
							"name": "",
							"type": "uint256"
						}
					],
					"stateMutability": "view",
					"type": "function"
				},
				{
					"inputs": [
						{
							"internalType": "address",
							"name": "",
							"type": "address"
						},
						{
							"internalType": "uint256",
							"name": "",
							"type": "uint256"
						}
					],
					"name": "tickets",
					"outputs": [
						{
							"internalType": "uint256",
							"name": "",
							"type": "uint256"
						}
					],
					"stateMutability": "view",
					"type": "function"
				},
				{
					"inputs": [
						{
							"internalType": "uint256",
							"name": "_id",
							"type": "uint256"
						},
						{
							"internalType": "uint256",
							"name": "quantity",
							"type": "uint256"
						},
						{
							"internalType": "address",
							"name": "to",
							"type": "address"
						}
					],
					"name": "transferTickets",
					"outputs": [],
					"stateMutability": "nonpayable",
					"type": "function"
				}
			],
			"devdoc": {
				"kind": "dev",
				"methods": {},
				"version": 1
			},
			"evm": {
				"assembly": "    /* \"solidity Project/Event Organization/Event.sol\":58:1930  contract EventContract {... */\n  mstore(0x40, 0x80)\n  callvalue\n  dup1\n  iszero\n  tag_1\n  jumpi\n  revert(0x00, 0x00)\ntag_1:\n  pop\n  dataSize(sub_0)\n  dup1\n  dataOffset(sub_0)\n  0x00\n  codecopy\n  0x00\n  return\nstop\n\nsub_0: assembly {\n        /* \"solidity Project/Event Organization/Event.sol\":58:1930  contract EventContract {... */\n      mstore(0x40, 0x80)\n      jumpi(tag_1, lt(calldatasize, 0x04))\n      shr(0xe0, calldataload(0x00))\n      dup1\n      0x0374ab0b\n      eq\n      tag_2\n      jumpi\n      dup1\n      0x0b791430\n      eq\n      tag_3\n      jumpi\n      dup1\n      0x1e96917d\n      eq\n      tag_4\n      jumpi\n      dup1\n      0x298ec208\n      eq\n      tag_5\n      jumpi\n      dup1\n      0x3d23eed9\n      eq\n      tag_6\n      jumpi\n      dup1\n      0xdae7a13c\n      eq\n      tag_7\n      jumpi\n    tag_1:\n      revert(0x00, 0x00)\n        /* \"solidity Project/Event Organization/Event.sol\":381:971  function createEvent(... */\n    tag_2:\n      callvalue\n      dup1\n      iszero\n      tag_8\n      jumpi\n      revert(0x00, 0x00)\n    tag_8:\n      pop\n      tag_9\n      0x04\n      dup1\n      calldatasize\n      sub\n      dup2\n      add\n      swap1\n      tag_10\n      swap2\n      swap1\n      tag_11\n      jump\t// in\n    tag_10:\n      tag_12\n      jump\t// in\n    tag_9:\n      stop\n        /* \"solidity Project/Event Organization/Event.sol\":252:288  mapping(uint => Event) public events */\n    tag_3:\n      callvalue\n      dup1\n      iszero\n      tag_13\n      jumpi\n      revert(0x00, 0x00)\n    tag_13:\n      pop\n      tag_14\n      0x04\n      dup1\n      calldatasize\n      sub\n      dup2\n      add\n      swap1\n      tag_15\n      swap2\n      swap1\n      tag_16\n      jump\t// in\n    tag_15:\n      tag_17\n      jump\t// in\n    tag_14:\n      mload(0x40)\n      tag_18\n      swap7\n      swap6\n      swap5\n      swap4\n      swap3\n      swap2\n      swap1\n      tag_19\n      jump\t// in\n    tag_18:\n      mload(0x40)\n      dup1\n      swap2\n      sub\n      swap1\n      return\n        /* \"solidity Project/Event Organization/Event.sol\":356:374  uint public nextID */\n    tag_4:\n      callvalue\n      dup1\n      iszero\n      tag_20\n      jumpi\n      revert(0x00, 0x00)\n    tag_20:\n      pop\n      tag_21\n      tag_22\n      jump\t// in\n    tag_21:\n      mload(0x40)\n      tag_23\n      swap2\n      swap1\n      tag_24\n      jump\t// in\n    tag_23:\n      mload(0x40)\n      dup1\n      swap2\n      sub\n      swap1\n      return\n        /* \"solidity Project/Event Organization/Event.sol\":977:1513  function buyTicket(uint _id, uint quantity) external payable {... */\n    tag_5:\n      tag_25\n      0x04\n      dup1\n      calldatasize\n      sub\n      dup2\n      add\n      swap1\n      tag_26\n      swap2\n      swap1\n      tag_27\n      jump\t// in\n    tag_26:\n      tag_28\n      jump\t// in\n    tag_25:\n      stop\n        /* \"solidity Project/Event Organization/Event.sol\":1519:1928  function transferTickets(uint _id, uint quantity, address to) external {... */\n    tag_6:\n      callvalue\n      dup1\n      iszero\n      tag_29\n      jumpi\n      revert(0x00, 0x00)\n    tag_29:\n      pop\n      tag_30\n      0x04\n      dup1\n      calldatasize\n      sub\n      dup2\n      add\n      swap1\n      tag_31\n      swap2\n      swap1\n      tag_32\n      jump\t// in\n    tag_31:\n      tag_33\n      jump\t// in\n    tag_30:\n      stop\n        /* \"solidity Project/Event Organization/Event.sol\":294:350  mapping(address => mapping(uint => uint)) public tickets */\n    tag_7:\n      callvalue\n      dup1\n      iszero\n      tag_34\n      jumpi\n      revert(0x00, 0x00)\n    tag_34:\n      pop\n      tag_35\n      0x04\n      dup1\n      calldatasize\n      sub\n      dup2\n      add\n      swap1\n      tag_36\n      swap2\n      swap1\n      tag_37\n      jump\t// in\n    tag_36:\n      tag_38\n      jump\t// in\n    tag_35:\n      mload(0x40)\n      tag_39\n      swap2\n      swap1\n      tag_24\n      jump\t// in\n    tag_39:\n      mload(0x40)\n      dup1\n      swap2\n      sub\n      swap1\n      return\n        /* \"solidity Project/Event Organization/Event.sol\":381:971  function createEvent(... */\n    tag_12:\n        /* \"solidity Project/Event Organization/Event.sol\":553:568  block.timestamp */\n      timestamp\n        /* \"solidity Project/Event Organization/Event.sol\":545:550  _date */\n      dup4\n        /* \"solidity Project/Event Organization/Event.sol\":545:568  _date > block.timestamp */\n      gt\n        /* \"solidity Project/Event Organization/Event.sol\":524:634  require(... */\n      tag_41\n      jumpi\n      mload(0x40)\n      0x08c379a000000000000000000000000000000000000000000000000000000000\n      dup2\n      mstore\n      0x04\n      add\n      tag_42\n      swap1\n      tag_43\n      jump\t// in\n    tag_42:\n      mload(0x40)\n      dup1\n      swap2\n      sub\n      swap1\n      revert\n    tag_41:\n        /* \"solidity Project/Event Organization/Event.sol\":680:681  0 */\n      0x00\n        /* \"solidity Project/Event Organization/Event.sol\":665:677  _ticketCount */\n      dup2\n        /* \"solidity Project/Event Organization/Event.sol\":665:681  _ticketCount > 0 */\n      gt\n        /* \"solidity Project/Event Organization/Event.sol\":644:770  require(... */\n      tag_44\n      jumpi\n      mload(0x40)\n      0x08c379a000000000000000000000000000000000000000000000000000000000\n      dup2\n      mstore\n      0x04\n      add\n      tag_45\n      swap1\n      tag_46\n      jump\t// in\n    tag_45:\n      mload(0x40)\n      dup1\n      swap2\n      sub\n      swap1\n      revert\n    tag_44:\n        /* \"solidity Project/Event Organization/Event.sol\":797:946  Event(... */\n      mload(0x40)\n      dup1\n      0xc0\n      add\n      0x40\n      mstore\n      dup1\n        /* \"solidity Project/Event Organization/Event.sol\":816:826  msg.sender */\n      caller\n        /* \"solidity Project/Event Organization/Event.sol\":797:946  Event(... */\n      0xffffffffffffffffffffffffffffffffffffffff\n      and\n      dup2\n      mstore\n      0x20\n      add\n        /* \"solidity Project/Event Organization/Event.sol\":840:845  _name */\n      dup6\n        /* \"solidity Project/Event Organization/Event.sol\":797:946  Event(... */\n      dup2\n      mstore\n      0x20\n      add\n        /* \"solidity Project/Event Organization/Event.sol\":859:864  _date */\n      dup5\n        /* \"solidity Project/Event Organization/Event.sol\":797:946  Event(... */\n      dup2\n      mstore\n      0x20\n      add\n        /* \"solidity Project/Event Organization/Event.sol\":878:884  _price */\n      dup4\n        /* \"solidity Project/Event Organization/Event.sol\":797:946  Event(... */\n      dup2\n      mstore\n      0x20\n      add\n        /* \"solidity Project/Event Organization/Event.sol\":898:910  _ticketCount */\n      dup3\n        /* \"solidity Project/Event Organization/Event.sol\":797:946  Event(... */\n      dup2\n      mstore\n      0x20\n      add\n        /* \"solidity Project/Event Organization/Event.sol\":924:936  _ticketCount */\n      dup3\n        /* \"solidity Project/Event Organization/Event.sol\":797:946  Event(... */\n      dup2\n      mstore\n      pop\n        /* \"solidity Project/Event Organization/Event.sol\":780:786  events */\n      0x00\n        /* \"solidity Project/Event Organization/Event.sol\":780:794  events[nextID] */\n      0x00\n        /* \"solidity Project/Event Organization/Event.sol\":787:793  nextID */\n      sload(0x02)\n        /* \"solidity Project/Event Organization/Event.sol\":780:794  events[nextID] */\n      dup2\n      mstore\n      0x20\n      add\n      swap1\n      dup2\n      mstore\n      0x20\n      add\n      0x00\n      keccak256\n        /* \"solidity Project/Event Organization/Event.sol\":780:946  events[nextID] = Event(... */\n      0x00\n      dup3\n      add\n      mload\n      dup2\n      0x00\n      add\n      exp(0x0100, 0x00)\n      dup2\n      sload\n      dup2\n      0xffffffffffffffffffffffffffffffffffffffff\n      mul\n      not\n      and\n      swap1\n      dup4\n      0xffffffffffffffffffffffffffffffffffffffff\n      and\n      mul\n      or\n      swap1\n      sstore\n      pop\n      0x20\n      dup3\n      add\n      mload\n      dup2\n      0x01\n      add\n      swap1\n      dup2\n      tag_47\n      swap2\n      swap1\n      tag_48\n      jump\t// in\n    tag_47:\n      pop\n      0x40\n      dup3\n      add\n      mload\n      dup2\n      0x02\n      add\n      sstore\n      0x60\n      dup3\n      add\n      mload\n      dup2\n      0x03\n      add\n      sstore\n      0x80\n      dup3\n      add\n      mload\n      dup2\n      0x04\n      add\n      sstore\n      0xa0\n      dup3\n      add\n      mload\n      dup2\n      0x05\n      add\n      sstore\n      swap1\n      pop\n      pop\n        /* \"solidity Project/Event Organization/Event.sol\":956:962  nextID */\n      0x02\n      0x00\n        /* \"solidity Project/Event Organization/Event.sol\":956:964  nextID++ */\n      dup2\n      sload\n      dup1\n      swap3\n      swap2\n      swap1\n      tag_49\n      swap1\n      tag_50\n      jump\t// in\n    tag_49:\n      swap2\n      swap1\n      pop\n      sstore\n      pop\n        /* \"solidity Project/Event Organization/Event.sol\":381:971  function createEvent(... */\n      pop\n      pop\n      pop\n      pop\n      jump\t// out\n        /* \"solidity Project/Event Organization/Event.sol\":252:288  mapping(uint => Event) public events */\n    tag_17:\n      mstore(0x20, 0x00)\n      dup1\n      0x00\n      mstore\n      keccak256(0x00, 0x40)\n      0x00\n      swap2\n      pop\n      swap1\n      pop\n      dup1\n      0x00\n      add\n      0x00\n      swap1\n      sload\n      swap1\n      0x0100\n      exp\n      swap1\n      div\n      0xffffffffffffffffffffffffffffffffffffffff\n      and\n      swap1\n      dup1\n      0x01\n      add\n      dup1\n      sload\n      tag_51\n      swap1\n      tag_52\n      jump\t// in\n    tag_51:\n      dup1\n      0x1f\n      add\n      0x20\n      dup1\n      swap2\n      div\n      mul\n      0x20\n      add\n      mload(0x40)\n      swap1\n      dup2\n      add\n      0x40\n      mstore\n      dup1\n      swap3\n      swap2\n      swap1\n      dup2\n      dup2\n      mstore\n      0x20\n      add\n      dup3\n      dup1\n      sload\n      tag_53\n      swap1\n      tag_52\n      jump\t// in\n    tag_53:\n      dup1\n      iszero\n      tag_54\n      jumpi\n      dup1\n      0x1f\n      lt\n      tag_55\n      jumpi\n      0x0100\n      dup1\n      dup4\n      sload\n      div\n      mul\n      dup4\n      mstore\n      swap2\n      0x20\n      add\n      swap2\n      jump(tag_54)\n    tag_55:\n      dup3\n      add\n      swap2\n      swap1\n      0x00\n      mstore\n      keccak256(0x00, 0x20)\n      swap1\n    tag_56:\n      dup2\n      sload\n      dup2\n      mstore\n      swap1\n      0x01\n      add\n      swap1\n      0x20\n      add\n      dup1\n      dup4\n      gt\n      tag_56\n      jumpi\n      dup3\n      swap1\n      sub\n      0x1f\n      and\n      dup3\n      add\n      swap2\n    tag_54:\n      pop\n      pop\n      pop\n      pop\n      pop\n      swap1\n      dup1\n      0x02\n      add\n      sload\n      swap1\n      dup1\n      0x03\n      add\n      sload\n      swap1\n      dup1\n      0x04\n      add\n      sload\n      swap1\n      dup1\n      0x05\n      add\n      sload\n      swap1\n      pop\n      dup7\n      jump\t// out\n        /* \"solidity Project/Event Organization/Event.sol\":356:374  uint public nextID */\n    tag_22:\n      sload(0x02)\n      dup2\n      jump\t// out\n        /* \"solidity Project/Event Organization/Event.sol\":977:1513  function buyTicket(uint _id, uint quantity) external payable {... */\n    tag_28:\n        /* \"solidity Project/Event Organization/Event.sol\":1076:1077  0 */\n      0x00\n        /* \"solidity Project/Event Organization/Event.sol\":1056:1062  events */\n      0x00\n        /* \"solidity Project/Event Organization/Event.sol\":1056:1067  events[_id] */\n      0x00\n        /* \"solidity Project/Event Organization/Event.sol\":1063:1066  _id */\n      dup5\n        /* \"solidity Project/Event Organization/Event.sol\":1056:1067  events[_id] */\n      dup2\n      mstore\n      0x20\n      add\n      swap1\n      dup2\n      mstore\n      0x20\n      add\n      0x00\n      keccak256\n        /* \"solidity Project/Event Organization/Event.sol\":1056:1072  events[_id].date */\n      0x02\n      add\n      sload\n        /* \"solidity Project/Event Organization/Event.sol\":1056:1077  events[_id].date != 0 */\n      sub\n        /* \"solidity Project/Event Organization/Event.sol\":1048:1102  require(events[_id].date != 0, \"Event does not Exist\") */\n      tag_58\n      jumpi\n      mload(0x40)\n      0x08c379a000000000000000000000000000000000000000000000000000000000\n      dup2\n      mstore\n      0x04\n      add\n      tag_59\n      swap1\n      tag_60\n      jump\t// in\n    tag_59:\n      mload(0x40)\n      dup1\n      swap2\n      sub\n      swap1\n      revert\n    tag_58:\n        /* \"solidity Project/Event Organization/Event.sol\":1152:1167  block.timestamp */\n      timestamp\n        /* \"solidity Project/Event Organization/Event.sol\":1133:1139  events */\n      0x00\n        /* \"solidity Project/Event Organization/Event.sol\":1133:1144  events[_id] */\n      0x00\n        /* \"solidity Project/Event Organization/Event.sol\":1140:1143  _id */\n      dup5\n        /* \"solidity Project/Event Organization/Event.sol\":1133:1144  events[_id] */\n      dup2\n      mstore\n      0x20\n      add\n      swap1\n      dup2\n      mstore\n      0x20\n      add\n      0x00\n      keccak256\n        /* \"solidity Project/Event Organization/Event.sol\":1133:1149  events[_id].date */\n      0x02\n      add\n      sload\n        /* \"solidity Project/Event Organization/Event.sol\":1133:1167  events[_id].date > block.timestamp */\n      gt\n        /* \"solidity Project/Event Organization/Event.sol\":1112:1219  require(... */\n      tag_61\n      jumpi\n      mload(0x40)\n      0x08c379a000000000000000000000000000000000000000000000000000000000\n      dup2\n      mstore\n      0x04\n      add\n      tag_62\n      swap1\n      tag_63\n      jump\t// in\n    tag_62:\n      mload(0x40)\n      dup1\n      swap2\n      sub\n      swap1\n      revert\n    tag_61:\n        /* \"solidity Project/Event Organization/Event.sol\":1229:1250  Event storage _events */\n      0x00\n        /* \"solidity Project/Event Organization/Event.sol\":1253:1259  events */\n      0x00\n        /* \"solidity Project/Event Organization/Event.sol\":1253:1264  events[_id] */\n      0x00\n        /* \"solidity Project/Event Organization/Event.sol\":1260:1263  _id */\n      dup5\n        /* \"solidity Project/Event Organization/Event.sol\":1253:1264  events[_id] */\n      dup2\n      mstore\n      0x20\n      add\n      swap1\n      dup2\n      mstore\n      0x20\n      add\n      0x00\n      keccak256\n        /* \"solidity Project/Event Organization/Event.sol\":1229:1264  Event storage _events = events[_id] */\n      swap1\n      pop\n        /* \"solidity Project/Event Organization/Event.sol\":1312:1320  quantity */\n      dup2\n        /* \"solidity Project/Event Organization/Event.sol\":1296:1303  _events */\n      dup2\n        /* \"solidity Project/Event Organization/Event.sol\":1296:1309  _events.price */\n      0x03\n      add\n      sload\n        /* \"solidity Project/Event Organization/Event.sol\":1296:1320  _events.price * quantity */\n      tag_64\n      swap2\n      swap1\n      tag_65\n      jump\t// in\n    tag_64:\n        /* \"solidity Project/Event Organization/Event.sol\":1282:1291  msg.value */\n      callvalue\n        /* \"solidity Project/Event Organization/Event.sol\":1282:1321  msg.value >= (_events.price * quantity) */\n      lt\n      iszero\n        /* \"solidity Project/Event Organization/Event.sol\":1274:1345  require(msg.value >= (_events.price * quantity), \"Ether is not enoigh\") */\n      tag_66\n      jumpi\n      mload(0x40)\n      0x08c379a000000000000000000000000000000000000000000000000000000000\n      dup2\n      mstore\n      0x04\n      add\n      tag_67\n      swap1\n      tag_68\n      jump\t// in\n    tag_67:\n      mload(0x40)\n      dup1\n      swap2\n      sub\n      swap1\n      revert\n    tag_66:\n        /* \"solidity Project/Event Organization/Event.sol\":1387:1395  quantity */\n      dup2\n        /* \"solidity Project/Event Organization/Event.sol\":1363:1370  _events */\n      dup2\n        /* \"solidity Project/Event Organization/Event.sol\":1363:1383  _events.ticketRemain */\n      0x05\n      add\n      sload\n        /* \"solidity Project/Event Organization/Event.sol\":1363:1395  _events.ticketRemain >= quantity */\n      lt\n      iszero\n        /* \"solidity Project/Event Organization/Event.sol\":1355:1418  require(_events.ticketRemain >= quantity, \"Not enough tickets\") */\n      tag_69\n      jumpi\n      mload(0x40)\n      0x08c379a000000000000000000000000000000000000000000000000000000000\n      dup2\n      mstore\n      0x04\n      add\n      tag_70\n      swap1\n      tag_71\n      jump\t// in\n    tag_70:\n      mload(0x40)\n      dup1\n      swap2\n      sub\n      swap1\n      revert\n    tag_69:\n        /* \"solidity Project/Event Organization/Event.sol\":1452:1460  quantity */\n      dup2\n        /* \"solidity Project/Event Organization/Event.sol\":1428:1435  _events */\n      dup2\n        /* \"solidity Project/Event Organization/Event.sol\":1428:1448  _events.ticketRemain */\n      0x05\n      add\n      0x00\n        /* \"solidity Project/Event Organization/Event.sol\":1428:1460  _events.ticketRemain -= quantity */\n      dup3\n      dup3\n      sload\n      tag_72\n      swap2\n      swap1\n      tag_73\n      jump\t// in\n    tag_72:\n      swap3\n      pop\n      pop\n      dup2\n      swap1\n      sstore\n      pop\n        /* \"solidity Project/Event Organization/Event.sol\":1498:1506  quantity */\n      dup2\n        /* \"solidity Project/Event Organization/Event.sol\":1470:1477  tickets */\n      0x01\n        /* \"solidity Project/Event Organization/Event.sol\":1470:1489  tickets[msg.sender] */\n      0x00\n        /* \"solidity Project/Event Organization/Event.sol\":1478:1488  msg.sender */\n      caller\n        /* \"solidity Project/Event Organization/Event.sol\":1470:1489  tickets[msg.sender] */\n      0xffffffffffffffffffffffffffffffffffffffff\n      and\n      0xffffffffffffffffffffffffffffffffffffffff\n      and\n      dup2\n      mstore\n      0x20\n      add\n      swap1\n      dup2\n      mstore\n      0x20\n      add\n      0x00\n      keccak256\n        /* \"solidity Project/Event Organization/Event.sol\":1470:1494  tickets[msg.sender][_id] */\n      0x00\n        /* \"solidity Project/Event Organization/Event.sol\":1490:1493  _id */\n      dup6\n        /* \"solidity Project/Event Organization/Event.sol\":1470:1494  tickets[msg.sender][_id] */\n      dup2\n      mstore\n      0x20\n      add\n      swap1\n      dup2\n      mstore\n      0x20\n      add\n      0x00\n      keccak256\n      0x00\n        /* \"solidity Project/Event Organization/Event.sol\":1470:1506  tickets[msg.sender][_id] += quantity */\n      dup3\n      dup3\n      sload\n      tag_74\n      swap2\n      swap1\n      tag_75\n      jump\t// in\n    tag_74:\n      swap3\n      pop\n      pop\n      dup2\n      swap1\n      sstore\n      pop\n        /* \"solidity Project/Event Organization/Event.sol\":1038:1513  {... */\n      pop\n        /* \"solidity Project/Event Organization/Event.sol\":977:1513  function buyTicket(uint _id, uint quantity) external payable {... */\n      pop\n      pop\n      jump\t// out\n        /* \"solidity Project/Event Organization/Event.sol\":1519:1928  function transferTickets(uint _id, uint quantity, address to) external {... */\n    tag_33:\n        /* \"solidity Project/Event Organization/Event.sol\":1628:1629  0 */\n      0x00\n        /* \"solidity Project/Event Organization/Event.sol\":1608:1614  events */\n      0x00\n        /* \"solidity Project/Event Organization/Event.sol\":1608:1619  events[_id] */\n      0x00\n        /* \"solidity Project/Event Organization/Event.sol\":1615:1618  _id */\n      dup6\n        /* \"solidity Project/Event Organization/Event.sol\":1608:1619  events[_id] */\n      dup2\n      mstore\n      0x20\n      add\n      swap1\n      dup2\n      mstore\n      0x20\n      add\n      0x00\n      keccak256\n        /* \"solidity Project/Event Organization/Event.sol\":1608:1624  events[_id].date */\n      0x02\n      add\n      sload\n        /* \"solidity Project/Event Organization/Event.sol\":1608:1629  events[_id].date != 0 */\n      sub\n        /* \"solidity Project/Event Organization/Event.sol\":1600:1654  require(events[_id].date != 0, \"Event does not Exist\") */\n      tag_77\n      jumpi\n      mload(0x40)\n      0x08c379a000000000000000000000000000000000000000000000000000000000\n      dup2\n      mstore\n      0x04\n      add\n      tag_78\n      swap1\n      tag_60\n      jump\t// in\n    tag_78:\n      mload(0x40)\n      dup1\n      swap2\n      sub\n      swap1\n      revert\n    tag_77:\n        /* \"solidity Project/Event Organization/Event.sol\":1691:1706  block.timestamp */\n      timestamp\n        /* \"solidity Project/Event Organization/Event.sol\":1672:1678  events */\n      0x00\n        /* \"solidity Project/Event Organization/Event.sol\":1672:1683  events[_id] */\n      0x00\n        /* \"solidity Project/Event Organization/Event.sol\":1679:1682  _id */\n      dup6\n        /* \"solidity Project/Event Organization/Event.sol\":1672:1683  events[_id] */\n      dup2\n      mstore\n      0x20\n      add\n      swap1\n      dup2\n      mstore\n      0x20\n      add\n      0x00\n      keccak256\n        /* \"solidity Project/Event Organization/Event.sol\":1672:1688  events[_id].date */\n      0x02\n      add\n      sload\n        /* \"solidity Project/Event Organization/Event.sol\":1672:1706  events[_id].date > block.timestamp */\n      gt\n        /* \"solidity Project/Event Organization/Event.sol\":1664:1736  require(events[_id].date > block.timestamp,\"Event has allready occured\") */\n      tag_79\n      jumpi\n      mload(0x40)\n      0x08c379a000000000000000000000000000000000000000000000000000000000\n      dup2\n      mstore\n      0x04\n      add\n      tag_80\n      swap1\n      tag_63\n      jump\t// in\n    tag_80:\n      mload(0x40)\n      dup1\n      swap2\n      sub\n      swap1\n      revert\n    tag_79:\n        /* \"solidity Project/Event Organization/Event.sol\":1782:1790  quantity */\n      dup2\n        /* \"solidity Project/Event Organization/Event.sol\":1754:1761  tickets */\n      0x01\n        /* \"solidity Project/Event Organization/Event.sol\":1754:1773  tickets[msg.sender] */\n      0x00\n        /* \"solidity Project/Event Organization/Event.sol\":1762:1772  msg.sender */\n      caller\n        /* \"solidity Project/Event Organization/Event.sol\":1754:1773  tickets[msg.sender] */\n      0xffffffffffffffffffffffffffffffffffffffff\n      and\n      0xffffffffffffffffffffffffffffffffffffffff\n      and\n      dup2\n      mstore\n      0x20\n      add\n      swap1\n      dup2\n      mstore\n      0x20\n      add\n      0x00\n      keccak256\n        /* \"solidity Project/Event Organization/Event.sol\":1754:1778  tickets[msg.sender][_id] */\n      0x00\n        /* \"solidity Project/Event Organization/Event.sol\":1774:1777  _id */\n      dup6\n        /* \"solidity Project/Event Organization/Event.sol\":1754:1778  tickets[msg.sender][_id] */\n      dup2\n      mstore\n      0x20\n      add\n      swap1\n      dup2\n      mstore\n      0x20\n      add\n      0x00\n      keccak256\n      sload\n        /* \"solidity Project/Event Organization/Event.sol\":1754:1790  tickets[msg.sender][_id] >= quantity */\n      lt\n      iszero\n        /* \"solidity Project/Event Organization/Event.sol\":1746:1837  require(tickets[msg.sender][_id] >= quantity, \"You do not have enough tickets to transfer\") */\n      tag_81\n      jumpi\n      mload(0x40)\n      0x08c379a000000000000000000000000000000000000000000000000000000000\n      dup2\n      mstore\n      0x04\n      add\n      tag_82\n      swap1\n      tag_83\n      jump\t// in\n    tag_82:\n      mload(0x40)\n      dup1\n      swap2\n      sub\n      swap1\n      revert\n    tag_81:\n        /* \"solidity Project/Event Organization/Event.sol\":1875:1883  quantity */\n      dup2\n        /* \"solidity Project/Event Organization/Event.sol\":1847:1854  tickets */\n      0x01\n        /* \"solidity Project/Event Organization/Event.sol\":1847:1866  tickets[msg.sender] */\n      0x00\n        /* \"solidity Project/Event Organization/Event.sol\":1855:1865  msg.sender */\n      caller\n        /* \"solidity Project/Event Organization/Event.sol\":1847:1866  tickets[msg.sender] */\n      0xffffffffffffffffffffffffffffffffffffffff\n      and\n      0xffffffffffffffffffffffffffffffffffffffff\n      and\n      dup2\n      mstore\n      0x20\n      add\n      swap1\n      dup2\n      mstore\n      0x20\n      add\n      0x00\n      keccak256\n        /* \"solidity Project/Event Organization/Event.sol\":1847:1871  tickets[msg.sender][_id] */\n      0x00\n        /* \"solidity Project/Event Organization/Event.sol\":1867:1870  _id */\n      dup6\n        /* \"solidity Project/Event Organization/Event.sol\":1847:1871  tickets[msg.sender][_id] */\n      dup2\n      mstore\n      0x20\n      add\n      swap1\n      dup2\n      mstore\n      0x20\n      add\n      0x00\n      keccak256\n      0x00\n        /* \"solidity Project/Event Organization/Event.sol\":1847:1883  tickets[msg.sender][_id] -= quantity */\n      dup3\n      dup3\n      sload\n      tag_84\n      swap2\n      swap1\n      tag_73\n      jump\t// in\n    tag_84:\n      swap3\n      pop\n      pop\n      dup2\n      swap1\n      sstore\n      pop\n        /* \"solidity Project/Event Organization/Event.sol\":1913:1921  quantity */\n      dup2\n        /* \"solidity Project/Event Organization/Event.sol\":1893:1900  tickets */\n      0x01\n        /* \"solidity Project/Event Organization/Event.sol\":1893:1904  tickets[to] */\n      0x00\n        /* \"solidity Project/Event Organization/Event.sol\":1901:1903  to */\n      dup4\n        /* \"solidity Project/Event Organization/Event.sol\":1893:1904  tickets[to] */\n      0xffffffffffffffffffffffffffffffffffffffff\n      and\n      0xffffffffffffffffffffffffffffffffffffffff\n      and\n      dup2\n      mstore\n      0x20\n      add\n      swap1\n      dup2\n      mstore\n      0x20\n      add\n      0x00\n      keccak256\n        /* \"solidity Project/Event Organization/Event.sol\":1893:1909  tickets[to][_id] */\n      0x00\n        /* \"solidity Project/Event Organization/Event.sol\":1905:1908  _id */\n      dup6\n        /* \"solidity Project/Event Organization/Event.sol\":1893:1909  tickets[to][_id] */\n      dup2\n      mstore\n      0x20\n      add\n      swap1\n      dup2\n      mstore\n      0x20\n      add\n      0x00\n      keccak256\n      0x00\n        /* \"solidity Project/Event Organization/Event.sol\":1893:1921  tickets[to][_id] += quantity */\n      dup3\n      dup3\n      sload\n      tag_85\n      swap2\n      swap1\n      tag_75\n      jump\t// in\n    tag_85:\n      swap3\n      pop\n      pop\n      dup2\n      swap1\n      sstore\n      pop\n        /* \"solidity Project/Event Organization/Event.sol\":1519:1928  function transferTickets(uint _id, uint quantity, address to) external {... */\n      pop\n      pop\n      pop\n      jump\t// out\n        /* \"solidity Project/Event Organization/Event.sol\":294:350  mapping(address => mapping(uint => uint)) public tickets */\n    tag_38:\n      mstore(0x20, 0x01)\n      dup2\n      0x00\n      mstore\n      mstore(0x20, keccak256(0x00, 0x40))\n      dup1\n      0x00\n      mstore\n      keccak256(0x00, 0x40)\n      0x00\n      swap2\n      pop\n      swap2\n      pop\n      pop\n      sload\n      dup2\n      jump\t// out\n        /* \"#utility.yul\":7:82   */\n    tag_86:\n        /* \"#utility.yul\":40:46   */\n      0x00\n        /* \"#utility.yul\":73:75   */\n      0x40\n        /* \"#utility.yul\":67:76   */\n      mload\n        /* \"#utility.yul\":57:76   */\n      swap1\n      pop\n        /* \"#utility.yul\":7:82   */\n      swap1\n      jump\t// out\n        /* \"#utility.yul\":88:205   */\n    tag_87:\n        /* \"#utility.yul\":197:198   */\n      0x00\n        /* \"#utility.yul\":194:195   */\n      0x00\n        /* \"#utility.yul\":187:199   */\n      revert\n        /* \"#utility.yul\":211:328   */\n    tag_88:\n        /* \"#utility.yul\":320:321   */\n      0x00\n        /* \"#utility.yul\":317:318   */\n      0x00\n        /* \"#utility.yul\":310:322   */\n      revert\n        /* \"#utility.yul\":334:451   */\n    tag_89:\n        /* \"#utility.yul\":443:444   */\n      0x00\n        /* \"#utility.yul\":440:441   */\n      0x00\n        /* \"#utility.yul\":433:445   */\n      revert\n        /* \"#utility.yul\":457:574   */\n    tag_90:\n        /* \"#utility.yul\":566:567   */\n      0x00\n        /* \"#utility.yul\":563:564   */\n      0x00\n        /* \"#utility.yul\":556:568   */\n      revert\n        /* \"#utility.yul\":580:682   */\n    tag_91:\n        /* \"#utility.yul\":621:627   */\n      0x00\n        /* \"#utility.yul\":672:674   */\n      0x1f\n        /* \"#utility.yul\":668:675   */\n      not\n        /* \"#utility.yul\":663:665   */\n      0x1f\n        /* \"#utility.yul\":656:661   */\n      dup4\n        /* \"#utility.yul\":652:666   */\n      add\n        /* \"#utility.yul\":648:676   */\n      and\n        /* \"#utility.yul\":638:676   */\n      swap1\n      pop\n        /* \"#utility.yul\":580:682   */\n      swap2\n      swap1\n      pop\n      jump\t// out\n        /* \"#utility.yul\":688:868   */\n    tag_92:\n        /* \"#utility.yul\":736:813   */\n      0x4e487b7100000000000000000000000000000000000000000000000000000000\n        /* \"#utility.yul\":733:734   */\n      0x00\n        /* \"#utility.yul\":726:814   */\n      mstore\n        /* \"#utility.yul\":833:837   */\n      0x41\n        /* \"#utility.yul\":830:831   */\n      0x04\n        /* \"#utility.yul\":823:838   */\n      mstore\n        /* \"#utility.yul\":857:861   */\n      0x24\n        /* \"#utility.yul\":854:855   */\n      0x00\n        /* \"#utility.yul\":847:862   */\n      revert\n        /* \"#utility.yul\":874:1155   */\n    tag_93:\n        /* \"#utility.yul\":957:984   */\n      tag_152\n        /* \"#utility.yul\":979:983   */\n      dup3\n        /* \"#utility.yul\":957:984   */\n      tag_91\n      jump\t// in\n    tag_152:\n        /* \"#utility.yul\":949:955   */\n      dup2\n        /* \"#utility.yul\":945:985   */\n      add\n        /* \"#utility.yul\":1087:1093   */\n      dup2\n        /* \"#utility.yul\":1075:1085   */\n      dup2\n        /* \"#utility.yul\":1072:1094   */\n      lt\n        /* \"#utility.yul\":1051:1069   */\n      0xffffffffffffffff\n        /* \"#utility.yul\":1039:1049   */\n      dup3\n        /* \"#utility.yul\":1036:1070   */\n      gt\n        /* \"#utility.yul\":1033:1095   */\n      or\n        /* \"#utility.yul\":1030:1118   */\n      iszero\n      tag_153\n      jumpi\n        /* \"#utility.yul\":1098:1116   */\n      tag_154\n      tag_92\n      jump\t// in\n    tag_154:\n        /* \"#utility.yul\":1030:1118   */\n    tag_153:\n        /* \"#utility.yul\":1138:1148   */\n      dup1\n        /* \"#utility.yul\":1134:1136   */\n      0x40\n        /* \"#utility.yul\":1127:1149   */\n      mstore\n        /* \"#utility.yul\":917:1155   */\n      pop\n        /* \"#utility.yul\":874:1155   */\n      pop\n      pop\n      jump\t// out\n        /* \"#utility.yul\":1161:1290   */\n    tag_94:\n        /* \"#utility.yul\":1195:1201   */\n      0x00\n        /* \"#utility.yul\":1222:1242   */\n      tag_156\n      tag_86\n      jump\t// in\n    tag_156:\n        /* \"#utility.yul\":1212:1242   */\n      swap1\n      pop\n        /* \"#utility.yul\":1251:1284   */\n      tag_157\n        /* \"#utility.yul\":1279:1283   */\n      dup3\n        /* \"#utility.yul\":1271:1277   */\n      dup3\n        /* \"#utility.yul\":1251:1284   */\n      tag_93\n      jump\t// in\n    tag_157:\n        /* \"#utility.yul\":1161:1290   */\n      swap2\n      swap1\n      pop\n      jump\t// out\n        /* \"#utility.yul\":1296:1604   */\n    tag_95:\n        /* \"#utility.yul\":1358:1362   */\n      0x00\n        /* \"#utility.yul\":1448:1466   */\n      0xffffffffffffffff\n        /* \"#utility.yul\":1440:1446   */\n      dup3\n        /* \"#utility.yul\":1437:1467   */\n      gt\n        /* \"#utility.yul\":1434:1490   */\n      iszero\n      tag_159\n      jumpi\n        /* \"#utility.yul\":1470:1488   */\n      tag_160\n      tag_92\n      jump\t// in\n    tag_160:\n        /* \"#utility.yul\":1434:1490   */\n    tag_159:\n        /* \"#utility.yul\":1508:1537   */\n      tag_161\n        /* \"#utility.yul\":1530:1536   */\n      dup3\n        /* \"#utility.yul\":1508:1537   */\n      tag_91\n      jump\t// in\n    tag_161:\n        /* \"#utility.yul\":1500:1537   */\n      swap1\n      pop\n        /* \"#utility.yul\":1592:1596   */\n      0x20\n        /* \"#utility.yul\":1586:1590   */\n      dup2\n        /* \"#utility.yul\":1582:1597   */\n      add\n        /* \"#utility.yul\":1574:1597   */\n      swap1\n      pop\n        /* \"#utility.yul\":1296:1604   */\n      swap2\n      swap1\n      pop\n      jump\t// out\n        /* \"#utility.yul\":1610:1758   */\n    tag_96:\n        /* \"#utility.yul\":1708:1714   */\n      dup3\n        /* \"#utility.yul\":1703:1706   */\n      dup2\n        /* \"#utility.yul\":1698:1701   */\n      dup4\n        /* \"#utility.yul\":1685:1715   */\n      calldatacopy\n        /* \"#utility.yul\":1749:1750   */\n      0x00\n        /* \"#utility.yul\":1740:1746   */\n      dup4\n        /* \"#utility.yul\":1735:1738   */\n      dup4\n        /* \"#utility.yul\":1731:1747   */\n      add\n        /* \"#utility.yul\":1724:1751   */\n      mstore\n        /* \"#utility.yul\":1610:1758   */\n      pop\n      pop\n      pop\n      jump\t// out\n        /* \"#utility.yul\":1764:2189   */\n    tag_97:\n        /* \"#utility.yul\":1842:1847   */\n      0x00\n        /* \"#utility.yul\":1867:1933   */\n      tag_164\n        /* \"#utility.yul\":1883:1932   */\n      tag_165\n        /* \"#utility.yul\":1925:1931   */\n      dup5\n        /* \"#utility.yul\":1883:1932   */\n      tag_95\n      jump\t// in\n    tag_165:\n        /* \"#utility.yul\":1867:1933   */\n      tag_94\n      jump\t// in\n    tag_164:\n        /* \"#utility.yul\":1858:1933   */\n      swap1\n      pop\n        /* \"#utility.yul\":1956:1962   */\n      dup3\n        /* \"#utility.yul\":1949:1954   */\n      dup2\n        /* \"#utility.yul\":1942:1963   */\n      mstore\n        /* \"#utility.yul\":1994:1998   */\n      0x20\n        /* \"#utility.yul\":1987:1992   */\n      dup2\n        /* \"#utility.yul\":1983:1999   */\n      add\n        /* \"#utility.yul\":2032:2035   */\n      dup5\n        /* \"#utility.yul\":2023:2029   */\n      dup5\n        /* \"#utility.yul\":2018:2021   */\n      dup5\n        /* \"#utility.yul\":2014:2030   */\n      add\n        /* \"#utility.yul\":2011:2036   */\n      gt\n        /* \"#utility.yul\":2008:2120   */\n      iszero\n      tag_166\n      jumpi\n        /* \"#utility.yul\":2039:2118   */\n      tag_167\n      tag_90\n      jump\t// in\n    tag_167:\n        /* \"#utility.yul\":2008:2120   */\n    tag_166:\n        /* \"#utility.yul\":2129:2183   */\n      tag_168\n        /* \"#utility.yul\":2176:2182   */\n      dup5\n        /* \"#utility.yul\":2171:2174   */\n      dup3\n        /* \"#utility.yul\":2166:2169   */\n      dup6\n        /* \"#utility.yul\":2129:2183   */\n      tag_96\n      jump\t// in\n    tag_168:\n        /* \"#utility.yul\":1848:2189   */\n      pop\n        /* \"#utility.yul\":1764:2189   */\n      swap4\n      swap3\n      pop\n      pop\n      pop\n      jump\t// out\n        /* \"#utility.yul\":2209:2549   */\n    tag_98:\n        /* \"#utility.yul\":2265:2270   */\n      0x00\n        /* \"#utility.yul\":2314:2317   */\n      dup3\n        /* \"#utility.yul\":2307:2311   */\n      0x1f\n        /* \"#utility.yul\":2299:2305   */\n      dup4\n        /* \"#utility.yul\":2295:2312   */\n      add\n        /* \"#utility.yul\":2291:2318   */\n      slt\n        /* \"#utility.yul\":2281:2403   */\n      tag_170\n      jumpi\n        /* \"#utility.yul\":2322:2401   */\n      tag_171\n      tag_89\n      jump\t// in\n    tag_171:\n        /* \"#utility.yul\":2281:2403   */\n    tag_170:\n        /* \"#utility.yul\":2439:2445   */\n      dup2\n        /* \"#utility.yul\":2426:2446   */\n      calldataload\n        /* \"#utility.yul\":2464:2543   */\n      tag_172\n        /* \"#utility.yul\":2539:2542   */\n      dup5\n        /* \"#utility.yul\":2531:2537   */\n      dup3\n        /* \"#utility.yul\":2524:2528   */\n      0x20\n        /* \"#utility.yul\":2516:2522   */\n      dup7\n        /* \"#utility.yul\":2512:2529   */\n      add\n        /* \"#utility.yul\":2464:2543   */\n      tag_97\n      jump\t// in\n    tag_172:\n        /* \"#utility.yul\":2455:2543   */\n      swap2\n      pop\n        /* \"#utility.yul\":2271:2549   */\n      pop\n        /* \"#utility.yul\":2209:2549   */\n      swap3\n      swap2\n      pop\n      pop\n      jump\t// out\n        /* \"#utility.yul\":2555:2632   */\n    tag_99:\n        /* \"#utility.yul\":2592:2599   */\n      0x00\n        /* \"#utility.yul\":2621:2626   */\n      dup2\n        /* \"#utility.yul\":2610:2626   */\n      swap1\n      pop\n        /* \"#utility.yul\":2555:2632   */\n      swap2\n      swap1\n      pop\n      jump\t// out\n        /* \"#utility.yul\":2638:2760   */\n    tag_100:\n        /* \"#utility.yul\":2711:2735   */\n      tag_175\n        /* \"#utility.yul\":2729:2734   */\n      dup2\n        /* \"#utility.yul\":2711:2735   */\n      tag_99\n      jump\t// in\n    tag_175:\n        /* \"#utility.yul\":2704:2709   */\n      dup2\n        /* \"#utility.yul\":2701:2736   */\n      eq\n        /* \"#utility.yul\":2691:2754   */\n      tag_176\n      jumpi\n        /* \"#utility.yul\":2750:2751   */\n      0x00\n        /* \"#utility.yul\":2747:2748   */\n      0x00\n        /* \"#utility.yul\":2740:2752   */\n      revert\n        /* \"#utility.yul\":2691:2754   */\n    tag_176:\n        /* \"#utility.yul\":2638:2760   */\n      pop\n      jump\t// out\n        /* \"#utility.yul\":2766:2905   */\n    tag_101:\n        /* \"#utility.yul\":2812:2817   */\n      0x00\n        /* \"#utility.yul\":2850:2856   */\n      dup2\n        /* \"#utility.yul\":2837:2857   */\n      calldataload\n        /* \"#utility.yul\":2828:2857   */\n      swap1\n      pop\n        /* \"#utility.yul\":2866:2899   */\n      tag_178\n        /* \"#utility.yul\":2893:2898   */\n      dup2\n        /* \"#utility.yul\":2866:2899   */\n      tag_100\n      jump\t// in\n    tag_178:\n        /* \"#utility.yul\":2766:2905   */\n      swap3\n      swap2\n      pop\n      pop\n      jump\t// out\n        /* \"#utility.yul\":2911:3856   */\n    tag_11:\n        /* \"#utility.yul\":3007:3013   */\n      0x00\n        /* \"#utility.yul\":3015:3021   */\n      0x00\n        /* \"#utility.yul\":3023:3029   */\n      0x00\n        /* \"#utility.yul\":3031:3037   */\n      0x00\n        /* \"#utility.yul\":3080:3083   */\n      0x80\n        /* \"#utility.yul\":3068:3077   */\n      dup6\n        /* \"#utility.yul\":3059:3066   */\n      dup8\n        /* \"#utility.yul\":3055:3078   */\n      sub\n        /* \"#utility.yul\":3051:3084   */\n      slt\n        /* \"#utility.yul\":3048:3168   */\n      iszero\n      tag_180\n      jumpi\n        /* \"#utility.yul\":3087:3166   */\n      tag_181\n      tag_87\n      jump\t// in\n    tag_181:\n        /* \"#utility.yul\":3048:3168   */\n    tag_180:\n        /* \"#utility.yul\":3235:3236   */\n      0x00\n        /* \"#utility.yul\":3224:3233   */\n      dup6\n        /* \"#utility.yul\":3220:3237   */\n      add\n        /* \"#utility.yul\":3207:3238   */\n      calldataload\n        /* \"#utility.yul\":3265:3283   */\n      0xffffffffffffffff\n        /* \"#utility.yul\":3257:3263   */\n      dup2\n        /* \"#utility.yul\":3254:3284   */\n      gt\n        /* \"#utility.yul\":3251:3368   */\n      iszero\n      tag_182\n      jumpi\n        /* \"#utility.yul\":3287:3366   */\n      tag_183\n      tag_88\n      jump\t// in\n    tag_183:\n        /* \"#utility.yul\":3251:3368   */\n    tag_182:\n        /* \"#utility.yul\":3392:3455   */\n      tag_184\n        /* \"#utility.yul\":3447:3454   */\n      dup8\n        /* \"#utility.yul\":3438:3444   */\n      dup3\n        /* \"#utility.yul\":3427:3436   */\n      dup9\n        /* \"#utility.yul\":3423:3445   */\n      add\n        /* \"#utility.yul\":3392:3455   */\n      tag_98\n      jump\t// in\n    tag_184:\n        /* \"#utility.yul\":3382:3455   */\n      swap5\n      pop\n        /* \"#utility.yul\":3178:3465   */\n      pop\n        /* \"#utility.yul\":3504:3506   */\n      0x20\n        /* \"#utility.yul\":3530:3583   */\n      tag_185\n        /* \"#utility.yul\":3575:3582   */\n      dup8\n        /* \"#utility.yul\":3566:3572   */\n      dup3\n        /* \"#utility.yul\":3555:3564   */\n      dup9\n        /* \"#utility.yul\":3551:3573   */\n      add\n        /* \"#utility.yul\":3530:3583   */\n      tag_101\n      jump\t// in\n    tag_185:\n        /* \"#utility.yul\":3520:3583   */\n      swap4\n      pop\n        /* \"#utility.yul\":3475:3593   */\n      pop\n        /* \"#utility.yul\":3632:3634   */\n      0x40\n        /* \"#utility.yul\":3658:3711   */\n      tag_186\n        /* \"#utility.yul\":3703:3710   */\n      dup8\n        /* \"#utility.yul\":3694:3700   */\n      dup3\n        /* \"#utility.yul\":3683:3692   */\n      dup9\n        /* \"#utility.yul\":3679:3701   */\n      add\n        /* \"#utility.yul\":3658:3711   */\n      tag_101\n      jump\t// in\n    tag_186:\n        /* \"#utility.yul\":3648:3711   */\n      swap3\n      pop\n        /* \"#utility.yul\":3603:3721   */\n      pop\n        /* \"#utility.yul\":3760:3762   */\n      0x60\n        /* \"#utility.yul\":3786:3839   */\n      tag_187\n        /* \"#utility.yul\":3831:3838   */\n      dup8\n        /* \"#utility.yul\":3822:3828   */\n      dup3\n        /* \"#utility.yul\":3811:3820   */\n      dup9\n        /* \"#utility.yul\":3807:3829   */\n      add\n        /* \"#utility.yul\":3786:3839   */\n      tag_101\n      jump\t// in\n    tag_187:\n        /* \"#utility.yul\":3776:3839   */\n      swap2\n      pop\n        /* \"#utility.yul\":3731:3849   */\n      pop\n        /* \"#utility.yul\":2911:3856   */\n      swap3\n      swap6\n      swap2\n      swap5\n      pop\n      swap3\n      pop\n      jump\t// out\n        /* \"#utility.yul\":3862:4191   */\n    tag_16:\n        /* \"#utility.yul\":3921:3927   */\n      0x00\n        /* \"#utility.yul\":3970:3972   */\n      0x20\n        /* \"#utility.yul\":3958:3967   */\n      dup3\n        /* \"#utility.yul\":3949:3956   */\n      dup5\n        /* \"#utility.yul\":3945:3968   */\n      sub\n        /* \"#utility.yul\":3941:3973   */\n      slt\n        /* \"#utility.yul\":3938:4057   */\n      iszero\n      tag_189\n      jumpi\n        /* \"#utility.yul\":3976:4055   */\n      tag_190\n      tag_87\n      jump\t// in\n    tag_190:\n        /* \"#utility.yul\":3938:4057   */\n    tag_189:\n        /* \"#utility.yul\":4096:4097   */\n      0x00\n        /* \"#utility.yul\":4121:4174   */\n      tag_191\n        /* \"#utility.yul\":4166:4173   */\n      dup5\n        /* \"#utility.yul\":4157:4163   */\n      dup3\n        /* \"#utility.yul\":4146:4155   */\n      dup6\n        /* \"#utility.yul\":4142:4164   */\n      add\n        /* \"#utility.yul\":4121:4174   */\n      tag_101\n      jump\t// in\n    tag_191:\n        /* \"#utility.yul\":4111:4174   */\n      swap2\n      pop\n        /* \"#utility.yul\":4067:4184   */\n      pop\n        /* \"#utility.yul\":3862:4191   */\n      swap3\n      swap2\n      pop\n      pop\n      jump\t// out\n        /* \"#utility.yul\":4197:4323   */\n    tag_102:\n        /* \"#utility.yul\":4234:4241   */\n      0x00\n        /* \"#utility.yul\":4274:4316   */\n      0xffffffffffffffffffffffffffffffffffffffff\n        /* \"#utility.yul\":4267:4272   */\n      dup3\n        /* \"#utility.yul\":4263:4317   */\n      and\n        /* \"#utility.yul\":4252:4317   */\n      swap1\n      pop\n        /* \"#utility.yul\":4197:4323   */\n      swap2\n      swap1\n      pop\n      jump\t// out\n        /* \"#utility.yul\":4329:4425   */\n    tag_103:\n        /* \"#utility.yul\":4366:4373   */\n      0x00\n        /* \"#utility.yul\":4395:4419   */\n      tag_194\n        /* \"#utility.yul\":4413:4418   */\n      dup3\n        /* \"#utility.yul\":4395:4419   */\n      tag_102\n      jump\t// in\n    tag_194:\n        /* \"#utility.yul\":4384:4419   */\n      swap1\n      pop\n        /* \"#utility.yul\":4329:4425   */\n      swap2\n      swap1\n      pop\n      jump\t// out\n        /* \"#utility.yul\":4431:4549   */\n    tag_104:\n        /* \"#utility.yul\":4518:4542   */\n      tag_196\n        /* \"#utility.yul\":4536:4541   */\n      dup2\n        /* \"#utility.yul\":4518:4542   */\n      tag_103\n      jump\t// in\n    tag_196:\n        /* \"#utility.yul\":4513:4516   */\n      dup3\n        /* \"#utility.yul\":4506:4543   */\n      mstore\n        /* \"#utility.yul\":4431:4549   */\n      pop\n      pop\n      jump\t// out\n        /* \"#utility.yul\":4555:4654   */\n    tag_105:\n        /* \"#utility.yul\":4607:4613   */\n      0x00\n        /* \"#utility.yul\":4641:4646   */\n      dup2\n        /* \"#utility.yul\":4635:4647   */\n      mload\n        /* \"#utility.yul\":4625:4647   */\n      swap1\n      pop\n        /* \"#utility.yul\":4555:4654   */\n      swap2\n      swap1\n      pop\n      jump\t// out\n        /* \"#utility.yul\":4660:4829   */\n    tag_106:\n        /* \"#utility.yul\":4744:4755   */\n      0x00\n        /* \"#utility.yul\":4778:4784   */\n      dup3\n        /* \"#utility.yul\":4773:4776   */\n      dup3\n        /* \"#utility.yul\":4766:4785   */\n      mstore\n        /* \"#utility.yul\":4818:4822   */\n      0x20\n        /* \"#utility.yul\":4813:4816   */\n      dup3\n        /* \"#utility.yul\":4809:4823   */\n      add\n        /* \"#utility.yul\":4794:4823   */\n      swap1\n      pop\n        /* \"#utility.yul\":4660:4829   */\n      swap3\n      swap2\n      pop\n      pop\n      jump\t// out\n        /* \"#utility.yul\":4835:4974   */\n    tag_107:\n        /* \"#utility.yul\":4924:4930   */\n      dup3\n        /* \"#utility.yul\":4919:4922   */\n      dup2\n        /* \"#utility.yul\":4914:4917   */\n      dup4\n        /* \"#utility.yul\":4908:4931   */\n      mcopy\n        /* \"#utility.yul\":4965:4966   */\n      0x00\n        /* \"#utility.yul\":4956:4962   */\n      dup4\n        /* \"#utility.yul\":4951:4954   */\n      dup4\n        /* \"#utility.yul\":4947:4963   */\n      add\n        /* \"#utility.yul\":4940:4967   */\n      mstore\n        /* \"#utility.yul\":4835:4974   */\n      pop\n      pop\n      pop\n      jump\t// out\n        /* \"#utility.yul\":4980:5357   */\n    tag_108:\n        /* \"#utility.yul\":5068:5071   */\n      0x00\n        /* \"#utility.yul\":5096:5135   */\n      tag_201\n        /* \"#utility.yul\":5129:5134   */\n      dup3\n        /* \"#utility.yul\":5096:5135   */\n      tag_105\n      jump\t// in\n    tag_201:\n        /* \"#utility.yul\":5151:5222   */\n      tag_202\n        /* \"#utility.yul\":5215:5221   */\n      dup2\n        /* \"#utility.yul\":5210:5213   */\n      dup6\n        /* \"#utility.yul\":5151:5222   */\n      tag_106\n      jump\t// in\n    tag_202:\n        /* \"#utility.yul\":5144:5222   */\n      swap4\n      pop\n        /* \"#utility.yul\":5231:5296   */\n      tag_203\n        /* \"#utility.yul\":5289:5295   */\n      dup2\n        /* \"#utility.yul\":5284:5287   */\n      dup6\n        /* \"#utility.yul\":5277:5281   */\n      0x20\n        /* \"#utility.yul\":5270:5275   */\n      dup7\n        /* \"#utility.yul\":5266:5282   */\n      add\n        /* \"#utility.yul\":5231:5296   */\n      tag_107\n      jump\t// in\n    tag_203:\n        /* \"#utility.yul\":5321:5350   */\n      tag_204\n        /* \"#utility.yul\":5343:5349   */\n      dup2\n        /* \"#utility.yul\":5321:5350   */\n      tag_91\n      jump\t// in\n    tag_204:\n        /* \"#utility.yul\":5316:5319   */\n      dup5\n        /* \"#utility.yul\":5312:5351   */\n      add\n        /* \"#utility.yul\":5305:5351   */\n      swap2\n      pop\n        /* \"#utility.yul\":5072:5357   */\n      pop\n        /* \"#utility.yul\":4980:5357   */\n      swap3\n      swap2\n      pop\n      pop\n      jump\t// out\n        /* \"#utility.yul\":5363:5481   */\n    tag_109:\n        /* \"#utility.yul\":5450:5474   */\n      tag_206\n        /* \"#utility.yul\":5468:5473   */\n      dup2\n        /* \"#utility.yul\":5450:5474   */\n      tag_99\n      jump\t// in\n    tag_206:\n        /* \"#utility.yul\":5445:5448   */\n      dup3\n        /* \"#utility.yul\":5438:5475   */\n      mstore\n        /* \"#utility.yul\":5363:5481   */\n      pop\n      pop\n      jump\t// out\n        /* \"#utility.yul\":5487:6353   */\n    tag_19:\n        /* \"#utility.yul\":5740:5744   */\n      0x00\n        /* \"#utility.yul\":5778:5781   */\n      0xc0\n        /* \"#utility.yul\":5767:5776   */\n      dup3\n        /* \"#utility.yul\":5763:5782   */\n      add\n        /* \"#utility.yul\":5755:5782   */\n      swap1\n      pop\n        /* \"#utility.yul\":5792:5863   */\n      tag_208\n        /* \"#utility.yul\":5860:5861   */\n      0x00\n        /* \"#utility.yul\":5849:5858   */\n      dup4\n        /* \"#utility.yul\":5845:5862   */\n      add\n        /* \"#utility.yul\":5836:5842   */\n      dup10\n        /* \"#utility.yul\":5792:5863   */\n      tag_104\n      jump\t// in\n    tag_208:\n        /* \"#utility.yul\":5910:5919   */\n      dup2\n        /* \"#utility.yul\":5904:5908   */\n      dup2\n        /* \"#utility.yul\":5900:5920   */\n      sub\n        /* \"#utility.yul\":5895:5897   */\n      0x20\n        /* \"#utility.yul\":5884:5893   */\n      dup4\n        /* \"#utility.yul\":5880:5898   */\n      add\n        /* \"#utility.yul\":5873:5921   */\n      mstore\n        /* \"#utility.yul\":5938:6016   */\n      tag_209\n        /* \"#utility.yul\":6011:6015   */\n      dup2\n        /* \"#utility.yul\":6002:6008   */\n      dup9\n        /* \"#utility.yul\":5938:6016   */\n      tag_108\n      jump\t// in\n    tag_209:\n        /* \"#utility.yul\":5930:6016   */\n      swap1\n      pop\n        /* \"#utility.yul\":6026:6098   */\n      tag_210\n        /* \"#utility.yul\":6094:6096   */\n      0x40\n        /* \"#utility.yul\":6083:6092   */\n      dup4\n        /* \"#utility.yul\":6079:6097   */\n      add\n        /* \"#utility.yul\":6070:6076   */\n      dup8\n        /* \"#utility.yul\":6026:6098   */\n      tag_109\n      jump\t// in\n    tag_210:\n        /* \"#utility.yul\":6108:6180   */\n      tag_211\n        /* \"#utility.yul\":6176:6178   */\n      0x60\n        /* \"#utility.yul\":6165:6174   */\n      dup4\n        /* \"#utility.yul\":6161:6179   */\n      add\n        /* \"#utility.yul\":6152:6158   */\n      dup7\n        /* \"#utility.yul\":6108:6180   */\n      tag_109\n      jump\t// in\n    tag_211:\n        /* \"#utility.yul\":6190:6263   */\n      tag_212\n        /* \"#utility.yul\":6258:6261   */\n      0x80\n        /* \"#utility.yul\":6247:6256   */\n      dup4\n        /* \"#utility.yul\":6243:6262   */\n      add\n        /* \"#utility.yul\":6234:6240   */\n      dup6\n        /* \"#utility.yul\":6190:6263   */\n      tag_109\n      jump\t// in\n    tag_212:\n        /* \"#utility.yul\":6273:6346   */\n      tag_213\n        /* \"#utility.yul\":6341:6344   */\n      0xa0\n        /* \"#utility.yul\":6330:6339   */\n      dup4\n        /* \"#utility.yul\":6326:6345   */\n      add\n        /* \"#utility.yul\":6317:6323   */\n      dup5\n        /* \"#utility.yul\":6273:6346   */\n      tag_109\n      jump\t// in\n    tag_213:\n        /* \"#utility.yul\":5487:6353   */\n      swap8\n      swap7\n      pop\n      pop\n      pop\n      pop\n      pop\n      pop\n      pop\n      jump\t// out\n        /* \"#utility.yul\":6359:6581   */\n    tag_24:\n        /* \"#utility.yul\":6452:6456   */\n      0x00\n        /* \"#utility.yul\":6490:6492   */\n      0x20\n        /* \"#utility.yul\":6479:6488   */\n      dup3\n        /* \"#utility.yul\":6475:6493   */\n      add\n        /* \"#utility.yul\":6467:6493   */\n      swap1\n      pop\n        /* \"#utility.yul\":6503:6574   */\n      tag_215\n        /* \"#utility.yul\":6571:6572   */\n      0x00\n        /* \"#utility.yul\":6560:6569   */\n      dup4\n        /* \"#utility.yul\":6556:6573   */\n      add\n        /* \"#utility.yul\":6547:6553   */\n      dup5\n        /* \"#utility.yul\":6503:6574   */\n      tag_109\n      jump\t// in\n    tag_215:\n        /* \"#utility.yul\":6359:6581   */\n      swap3\n      swap2\n      pop\n      pop\n      jump\t// out\n        /* \"#utility.yul\":6587:7061   */\n    tag_27:\n        /* \"#utility.yul\":6655:6661   */\n      0x00\n        /* \"#utility.yul\":6663:6669   */\n      0x00\n        /* \"#utility.yul\":6712:6714   */\n      0x40\n        /* \"#utility.yul\":6700:6709   */\n      dup4\n        /* \"#utility.yul\":6691:6698   */\n      dup6\n        /* \"#utility.yul\":6687:6710   */\n      sub\n        /* \"#utility.yul\":6683:6715   */\n      slt\n        /* \"#utility.yul\":6680:6799   */\n      iszero\n      tag_217\n      jumpi\n        /* \"#utility.yul\":6718:6797   */\n      tag_218\n      tag_87\n      jump\t// in\n    tag_218:\n        /* \"#utility.yul\":6680:6799   */\n    tag_217:\n        /* \"#utility.yul\":6838:6839   */\n      0x00\n        /* \"#utility.yul\":6863:6916   */\n      tag_219\n        /* \"#utility.yul\":6908:6915   */\n      dup6\n        /* \"#utility.yul\":6899:6905   */\n      dup3\n        /* \"#utility.yul\":6888:6897   */\n      dup7\n        /* \"#utility.yul\":6884:6906   */\n      add\n        /* \"#utility.yul\":6863:6916   */\n      tag_101\n      jump\t// in\n    tag_219:\n        /* \"#utility.yul\":6853:6916   */\n      swap3\n      pop\n        /* \"#utility.yul\":6809:6926   */\n      pop\n        /* \"#utility.yul\":6965:6967   */\n      0x20\n        /* \"#utility.yul\":6991:7044   */\n      tag_220\n        /* \"#utility.yul\":7036:7043   */\n      dup6\n        /* \"#utility.yul\":7027:7033   */\n      dup3\n        /* \"#utility.yul\":7016:7025   */\n      dup7\n        /* \"#utility.yul\":7012:7034   */\n      add\n        /* \"#utility.yul\":6991:7044   */\n      tag_101\n      jump\t// in\n    tag_220:\n        /* \"#utility.yul\":6981:7044   */\n      swap2\n      pop\n        /* \"#utility.yul\":6936:7054   */\n      pop\n        /* \"#utility.yul\":6587:7061   */\n      swap3\n      pop\n      swap3\n      swap1\n      pop\n      jump\t// out\n        /* \"#utility.yul\":7067:7189   */\n    tag_110:\n        /* \"#utility.yul\":7140:7164   */\n      tag_222\n        /* \"#utility.yul\":7158:7163   */\n      dup2\n        /* \"#utility.yul\":7140:7164   */\n      tag_103\n      jump\t// in\n    tag_222:\n        /* \"#utility.yul\":7133:7138   */\n      dup2\n        /* \"#utility.yul\":7130:7165   */\n      eq\n        /* \"#utility.yul\":7120:7183   */\n      tag_223\n      jumpi\n        /* \"#utility.yul\":7179:7180   */\n      0x00\n        /* \"#utility.yul\":7176:7177   */\n      0x00\n        /* \"#utility.yul\":7169:7181   */\n      revert\n        /* \"#utility.yul\":7120:7183   */\n    tag_223:\n        /* \"#utility.yul\":7067:7189   */\n      pop\n      jump\t// out\n        /* \"#utility.yul\":7195:7334   */\n    tag_111:\n        /* \"#utility.yul\":7241:7246   */\n      0x00\n        /* \"#utility.yul\":7279:7285   */\n      dup2\n        /* \"#utility.yul\":7266:7286   */\n      calldataload\n        /* \"#utility.yul\":7257:7286   */\n      swap1\n      pop\n        /* \"#utility.yul\":7295:7328   */\n      tag_225\n        /* \"#utility.yul\":7322:7327   */\n      dup2\n        /* \"#utility.yul\":7295:7328   */\n      tag_110\n      jump\t// in\n    tag_225:\n        /* \"#utility.yul\":7195:7334   */\n      swap3\n      swap2\n      pop\n      pop\n      jump\t// out\n        /* \"#utility.yul\":7340:7959   */\n    tag_32:\n        /* \"#utility.yul\":7417:7423   */\n      0x00\n        /* \"#utility.yul\":7425:7431   */\n      0x00\n        /* \"#utility.yul\":7433:7439   */\n      0x00\n        /* \"#utility.yul\":7482:7484   */\n      0x60\n        /* \"#utility.yul\":7470:7479   */\n      dup5\n        /* \"#utility.yul\":7461:7468   */\n      dup7\n        /* \"#utility.yul\":7457:7480   */\n      sub\n        /* \"#utility.yul\":7453:7485   */\n      slt\n        /* \"#utility.yul\":7450:7569   */\n      iszero\n      tag_227\n      jumpi\n        /* \"#utility.yul\":7488:7567   */\n      tag_228\n      tag_87\n      jump\t// in\n    tag_228:\n        /* \"#utility.yul\":7450:7569   */\n    tag_227:\n        /* \"#utility.yul\":7608:7609   */\n      0x00\n        /* \"#utility.yul\":7633:7686   */\n      tag_229\n        /* \"#utility.yul\":7678:7685   */\n      dup7\n        /* \"#utility.yul\":7669:7675   */\n      dup3\n        /* \"#utility.yul\":7658:7667   */\n      dup8\n        /* \"#utility.yul\":7654:7676   */\n      add\n        /* \"#utility.yul\":7633:7686   */\n      tag_101\n      jump\t// in\n    tag_229:\n        /* \"#utility.yul\":7623:7686   */\n      swap4\n      pop\n        /* \"#utility.yul\":7579:7696   */\n      pop\n        /* \"#utility.yul\":7735:7737   */\n      0x20\n        /* \"#utility.yul\":7761:7814   */\n      tag_230\n        /* \"#utility.yul\":7806:7813   */\n      dup7\n        /* \"#utility.yul\":7797:7803   */\n      dup3\n        /* \"#utility.yul\":7786:7795   */\n      dup8\n        /* \"#utility.yul\":7782:7804   */\n      add\n        /* \"#utility.yul\":7761:7814   */\n      tag_101\n      jump\t// in\n    tag_230:\n        /* \"#utility.yul\":7751:7814   */\n      swap3\n      pop\n        /* \"#utility.yul\":7706:7824   */\n      pop\n        /* \"#utility.yul\":7863:7865   */\n      0x40\n        /* \"#utility.yul\":7889:7942   */\n      tag_231\n        /* \"#utility.yul\":7934:7941   */\n      dup7\n        /* \"#utility.yul\":7925:7931   */\n      dup3\n        /* \"#utility.yul\":7914:7923   */\n      dup8\n        /* \"#utility.yul\":7910:7932   */\n      add\n        /* \"#utility.yul\":7889:7942   */\n      tag_111\n      jump\t// in\n    tag_231:\n        /* \"#utility.yul\":7879:7942   */\n      swap2\n      pop\n        /* \"#utility.yul\":7834:7952   */\n      pop\n        /* \"#utility.yul\":7340:7959   */\n      swap3\n      pop\n      swap3\n      pop\n      swap3\n      jump\t// out\n        /* \"#utility.yul\":7965:8439   */\n    tag_37:\n        /* \"#utility.yul\":8033:8039   */\n      0x00\n        /* \"#utility.yul\":8041:8047   */\n      0x00\n        /* \"#utility.yul\":8090:8092   */\n      0x40\n        /* \"#utility.yul\":8078:8087   */\n      dup4\n        /* \"#utility.yul\":8069:8076   */\n      dup6\n        /* \"#utility.yul\":8065:8088   */\n      sub\n        /* \"#utility.yul\":8061:8093   */\n      slt\n        /* \"#utility.yul\":8058:8177   */\n      iszero\n      tag_233\n      jumpi\n        /* \"#utility.yul\":8096:8175   */\n      tag_234\n      tag_87\n      jump\t// in\n    tag_234:\n        /* \"#utility.yul\":8058:8177   */\n    tag_233:\n        /* \"#utility.yul\":8216:8217   */\n      0x00\n        /* \"#utility.yul\":8241:8294   */\n      tag_235\n        /* \"#utility.yul\":8286:8293   */\n      dup6\n        /* \"#utility.yul\":8277:8283   */\n      dup3\n        /* \"#utility.yul\":8266:8275   */\n      dup7\n        /* \"#utility.yul\":8262:8284   */\n      add\n        /* \"#utility.yul\":8241:8294   */\n      tag_111\n      jump\t// in\n    tag_235:\n        /* \"#utility.yul\":8231:8294   */\n      swap3\n      pop\n        /* \"#utility.yul\":8187:8304   */\n      pop\n        /* \"#utility.yul\":8343:8345   */\n      0x20\n        /* \"#utility.yul\":8369:8422   */\n      tag_236\n        /* \"#utility.yul\":8414:8421   */\n      dup6\n        /* \"#utility.yul\":8405:8411   */\n      dup3\n        /* \"#utility.yul\":8394:8403   */\n      dup7\n        /* \"#utility.yul\":8390:8412   */\n      add\n        /* \"#utility.yul\":8369:8422   */\n      tag_101\n      jump\t// in\n    tag_236:\n        /* \"#utility.yul\":8359:8422   */\n      swap2\n      pop\n        /* \"#utility.yul\":8314:8432   */\n      pop\n        /* \"#utility.yul\":7965:8439   */\n      swap3\n      pop\n      swap3\n      swap1\n      pop\n      jump\t// out\n        /* \"#utility.yul\":8445:8672   */\n    tag_112:\n        /* \"#utility.yul\":8585:8619   */\n      0x596f752063616e206f7267616e697a65204576656e747320666f722066757475\n        /* \"#utility.yul\":8581:8582   */\n      0x00\n        /* \"#utility.yul\":8573:8579   */\n      dup3\n        /* \"#utility.yul\":8569:8583   */\n      add\n        /* \"#utility.yul\":8562:8620   */\n      mstore\n        /* \"#utility.yul\":8654:8664   */\n      0x7265206461746573000000000000000000000000000000000000000000000000\n        /* \"#utility.yul\":8649:8651   */\n      0x20\n        /* \"#utility.yul\":8641:8647   */\n      dup3\n        /* \"#utility.yul\":8637:8652   */\n      add\n        /* \"#utility.yul\":8630:8665   */\n      mstore\n        /* \"#utility.yul\":8445:8672   */\n      pop\n      jump\t// out\n        /* \"#utility.yul\":8678:9044   */\n    tag_113:\n        /* \"#utility.yul\":8820:8823   */\n      0x00\n        /* \"#utility.yul\":8841:8908   */\n      tag_239\n        /* \"#utility.yul\":8905:8907   */\n      0x28\n        /* \"#utility.yul\":8900:8903   */\n      dup4\n        /* \"#utility.yul\":8841:8908   */\n      tag_106\n      jump\t// in\n    tag_239:\n        /* \"#utility.yul\":8834:8908   */\n      swap2\n      pop\n        /* \"#utility.yul\":8917:9010   */\n      tag_240\n        /* \"#utility.yul\":9006:9009   */\n      dup3\n        /* \"#utility.yul\":8917:9010   */\n      tag_112\n      jump\t// in\n    tag_240:\n        /* \"#utility.yul\":9035:9037   */\n      0x40\n        /* \"#utility.yul\":9030:9033   */\n      dup3\n        /* \"#utility.yul\":9026:9038   */\n      add\n        /* \"#utility.yul\":9019:9038   */\n      swap1\n      pop\n        /* \"#utility.yul\":8678:9044   */\n      swap2\n      swap1\n      pop\n      jump\t// out\n        /* \"#utility.yul\":9050:9469   */\n    tag_43:\n        /* \"#utility.yul\":9216:9220   */\n      0x00\n        /* \"#utility.yul\":9254:9256   */\n      0x20\n        /* \"#utility.yul\":9243:9252   */\n      dup3\n        /* \"#utility.yul\":9239:9257   */\n      add\n        /* \"#utility.yul\":9231:9257   */\n      swap1\n      pop\n        /* \"#utility.yul\":9303:9312   */\n      dup2\n        /* \"#utility.yul\":9297:9301   */\n      dup2\n        /* \"#utility.yul\":9293:9313   */\n      sub\n        /* \"#utility.yul\":9289:9290   */\n      0x00\n        /* \"#utility.yul\":9278:9287   */\n      dup4\n        /* \"#utility.yul\":9274:9291   */\n      add\n        /* \"#utility.yul\":9267:9314   */\n      mstore\n        /* \"#utility.yul\":9331:9462   */\n      tag_242\n        /* \"#utility.yul\":9457:9461   */\n      dup2\n        /* \"#utility.yul\":9331:9462   */\n      tag_113\n      jump\t// in\n    tag_242:\n        /* \"#utility.yul\":9323:9462   */\n      swap1\n      pop\n        /* \"#utility.yul\":9050:9469   */\n      swap2\n      swap1\n      pop\n      jump\t// out\n        /* \"#utility.yul\":9475:9725   */\n    tag_114:\n        /* \"#utility.yul\":9615:9649   */\n      0x796f752063616e206f7267616e697365206576656e74206f6e20746865206966\n        /* \"#utility.yul\":9611:9612   */\n      0x00\n        /* \"#utility.yul\":9603:9609   */\n      dup3\n        /* \"#utility.yul\":9599:9613   */\n      add\n        /* \"#utility.yul\":9592:9650   */\n      mstore\n        /* \"#utility.yul\":9684:9717   */\n      0x20796f7520637265617465207469636b657473206d6f7265207468616e203000\n        /* \"#utility.yul\":9679:9681   */\n      0x20\n        /* \"#utility.yul\":9671:9677   */\n      dup3\n        /* \"#utility.yul\":9667:9682   */\n      add\n        /* \"#utility.yul\":9660:9718   */\n      mstore\n        /* \"#utility.yul\":9475:9725   */\n      pop\n      jump\t// out\n        /* \"#utility.yul\":9731:10097   */\n    tag_115:\n        /* \"#utility.yul\":9873:9876   */\n      0x00\n        /* \"#utility.yul\":9894:9961   */\n      tag_245\n        /* \"#utility.yul\":9958:9960   */\n      0x3f\n        /* \"#utility.yul\":9953:9956   */\n      dup4\n        /* \"#utility.yul\":9894:9961   */\n      tag_106\n      jump\t// in\n    tag_245:\n        /* \"#utility.yul\":9887:9961   */\n      swap2\n      pop\n        /* \"#utility.yul\":9970:10063   */\n      tag_246\n        /* \"#utility.yul\":10059:10062   */\n      dup3\n        /* \"#utility.yul\":9970:10063   */\n      tag_114\n      jump\t// in\n    tag_246:\n        /* \"#utility.yul\":10088:10090   */\n      0x40\n        /* \"#utility.yul\":10083:10086   */\n      dup3\n        /* \"#utility.yul\":10079:10091   */\n      add\n        /* \"#utility.yul\":10072:10091   */\n      swap1\n      pop\n        /* \"#utility.yul\":9731:10097   */\n      swap2\n      swap1\n      pop\n      jump\t// out\n        /* \"#utility.yul\":10103:10522   */\n    tag_46:\n        /* \"#utility.yul\":10269:10273   */\n      0x00\n        /* \"#utility.yul\":10307:10309   */\n      0x20\n        /* \"#utility.yul\":10296:10305   */\n      dup3\n        /* \"#utility.yul\":10292:10310   */\n      add\n        /* \"#utility.yul\":10284:10310   */\n      swap1\n      pop\n        /* \"#utility.yul\":10356:10365   */\n      dup2\n        /* \"#utility.yul\":10350:10354   */\n      dup2\n        /* \"#utility.yul\":10346:10366   */\n      sub\n        /* \"#utility.yul\":10342:10343   */\n      0x00\n        /* \"#utility.yul\":10331:10340   */\n      dup4\n        /* \"#utility.yul\":10327:10344   */\n      add\n        /* \"#utility.yul\":10320:10367   */\n      mstore\n        /* \"#utility.yul\":10384:10515   */\n      tag_248\n        /* \"#utility.yul\":10510:10514   */\n      dup2\n        /* \"#utility.yul\":10384:10515   */\n      tag_115\n      jump\t// in\n    tag_248:\n        /* \"#utility.yul\":10376:10515   */\n      swap1\n      pop\n        /* \"#utility.yul\":10103:10522   */\n      swap2\n      swap1\n      pop\n      jump\t// out\n        /* \"#utility.yul\":10528:10708   */\n    tag_116:\n        /* \"#utility.yul\":10576:10653   */\n      0x4e487b7100000000000000000000000000000000000000000000000000000000\n        /* \"#utility.yul\":10573:10574   */\n      0x00\n        /* \"#utility.yul\":10566:10654   */\n      mstore\n        /* \"#utility.yul\":10673:10677   */\n      0x22\n        /* \"#utility.yul\":10670:10671   */\n      0x04\n        /* \"#utility.yul\":10663:10678   */\n      mstore\n        /* \"#utility.yul\":10697:10701   */\n      0x24\n        /* \"#utility.yul\":10694:10695   */\n      0x00\n        /* \"#utility.yul\":10687:10702   */\n      revert\n        /* \"#utility.yul\":10714:11034   */\n    tag_52:\n        /* \"#utility.yul\":10758:10764   */\n      0x00\n        /* \"#utility.yul\":10795:10796   */\n      0x02\n        /* \"#utility.yul\":10789:10793   */\n      dup3\n        /* \"#utility.yul\":10785:10797   */\n      div\n        /* \"#utility.yul\":10775:10797   */\n      swap1\n      pop\n        /* \"#utility.yul\":10842:10843   */\n      0x01\n        /* \"#utility.yul\":10836:10840   */\n      dup3\n        /* \"#utility.yul\":10832:10844   */\n      and\n        /* \"#utility.yul\":10863:10881   */\n      dup1\n        /* \"#utility.yul\":10853:10934   */\n      tag_251\n      jumpi\n        /* \"#utility.yul\":10919:10923   */\n      0x7f\n        /* \"#utility.yul\":10911:10917   */\n      dup3\n        /* \"#utility.yul\":10907:10924   */\n      and\n        /* \"#utility.yul\":10897:10924   */\n      swap2\n      pop\n        /* \"#utility.yul\":10853:10934   */\n    tag_251:\n        /* \"#utility.yul\":10981:10983   */\n      0x20\n        /* \"#utility.yul\":10973:10979   */\n      dup3\n        /* \"#utility.yul\":10970:10984   */\n      lt\n        /* \"#utility.yul\":10950:10968   */\n      dup2\n        /* \"#utility.yul\":10947:10985   */\n      sub\n        /* \"#utility.yul\":10944:11028   */\n      tag_252\n      jumpi\n        /* \"#utility.yul\":11000:11018   */\n      tag_253\n      tag_116\n      jump\t// in\n    tag_253:\n        /* \"#utility.yul\":10944:11028   */\n    tag_252:\n        /* \"#utility.yul\":10765:11034   */\n      pop\n        /* \"#utility.yul\":10714:11034   */\n      swap2\n      swap1\n      pop\n      jump\t// out\n        /* \"#utility.yul\":11040:11181   */\n    tag_117:\n        /* \"#utility.yul\":11089:11093   */\n      0x00\n        /* \"#utility.yul\":11112:11115   */\n      dup2\n        /* \"#utility.yul\":11104:11115   */\n      swap1\n      pop\n        /* \"#utility.yul\":11135:11138   */\n      dup2\n        /* \"#utility.yul\":11132:11133   */\n      0x00\n        /* \"#utility.yul\":11125:11139   */\n      mstore\n        /* \"#utility.yul\":11169:11173   */\n      0x20\n        /* \"#utility.yul\":11166:11167   */\n      0x00\n        /* \"#utility.yul\":11156:11174   */\n      keccak256\n        /* \"#utility.yul\":11148:11174   */\n      swap1\n      pop\n        /* \"#utility.yul\":11040:11181   */\n      swap2\n      swap1\n      pop\n      jump\t// out\n        /* \"#utility.yul\":11187:11280   */\n    tag_118:\n        /* \"#utility.yul\":11224:11230   */\n      0x00\n        /* \"#utility.yul\":11271:11273   */\n      0x20\n        /* \"#utility.yul\":11266:11268   */\n      0x1f\n        /* \"#utility.yul\":11259:11264   */\n      dup4\n        /* \"#utility.yul\":11255:11269   */\n      add\n        /* \"#utility.yul\":11251:11274   */\n      div\n        /* \"#utility.yul\":11241:11274   */\n      swap1\n      pop\n        /* \"#utility.yul\":11187:11280   */\n      swap2\n      swap1\n      pop\n      jump\t// out\n        /* \"#utility.yul\":11286:11393   */\n    tag_119:\n        /* \"#utility.yul\":11330:11338   */\n      0x00\n        /* \"#utility.yul\":11380:11385   */\n      dup3\n        /* \"#utility.yul\":11374:11378   */\n      dup3\n        /* \"#utility.yul\":11370:11386   */\n      shl\n        /* \"#utility.yul\":11349:11386   */\n      swap1\n      pop\n        /* \"#utility.yul\":11286:11393   */\n      swap3\n      swap2\n      pop\n      pop\n      jump\t// out\n        /* \"#utility.yul\":11399:11792   */\n    tag_120:\n        /* \"#utility.yul\":11468:11474   */\n      0x00\n        /* \"#utility.yul\":11518:11519   */\n      0x08\n        /* \"#utility.yul\":11506:11516   */\n      dup4\n        /* \"#utility.yul\":11502:11520   */\n      mul\n        /* \"#utility.yul\":11541:11638   */\n      tag_258\n        /* \"#utility.yul\":11571:11637   */\n      0xffffffffffffffffffffffffffffffffffffffffffffffffffffffffffffffff\n        /* \"#utility.yul\":11560:11569   */\n      dup3\n        /* \"#utility.yul\":11541:11638   */\n      tag_119\n      jump\t// in\n    tag_258:\n        /* \"#utility.yul\":11659:11698   */\n      tag_259\n        /* \"#utility.yul\":11689:11697   */\n      dup7\n        /* \"#utility.yul\":11678:11687   */\n      dup4\n        /* \"#utility.yul\":11659:11698   */\n      tag_119\n      jump\t// in\n    tag_259:\n        /* \"#utility.yul\":11647:11698   */\n      swap6\n      pop\n        /* \"#utility.yul\":11731:11735   */\n      dup1\n        /* \"#utility.yul\":11727:11736   */\n      not\n        /* \"#utility.yul\":11720:11725   */\n      dup5\n        /* \"#utility.yul\":11716:11737   */\n      and\n        /* \"#utility.yul\":11707:11737   */\n      swap4\n      pop\n        /* \"#utility.yul\":11780:11784   */\n      dup1\n        /* \"#utility.yul\":11770:11778   */\n      dup7\n        /* \"#utility.yul\":11766:11785   */\n      and\n        /* \"#utility.yul\":11759:11764   */\n      dup5\n        /* \"#utility.yul\":11756:11786   */\n      or\n        /* \"#utility.yul\":11746:11786   */\n      swap3\n      pop\n        /* \"#utility.yul\":11475:11792   */\n      pop\n      pop\n        /* \"#utility.yul\":11399:11792   */\n      swap4\n      swap3\n      pop\n      pop\n      pop\n      jump\t// out\n        /* \"#utility.yul\":11798:11858   */\n    tag_121:\n        /* \"#utility.yul\":11826:11829   */\n      0x00\n        /* \"#utility.yul\":11847:11852   */\n      dup2\n        /* \"#utility.yul\":11840:11852   */\n      swap1\n      pop\n        /* \"#utility.yul\":11798:11858   */\n      swap2\n      swap1\n      pop\n      jump\t// out\n        /* \"#utility.yul\":11864:12006   */\n    tag_122:\n        /* \"#utility.yul\":11914:11923   */\n      0x00\n        /* \"#utility.yul\":11947:12000   */\n      tag_262\n        /* \"#utility.yul\":11965:11999   */\n      tag_263\n        /* \"#utility.yul\":11974:11998   */\n      tag_264\n        /* \"#utility.yul\":11992:11997   */\n      dup5\n        /* \"#utility.yul\":11974:11998   */\n      tag_99\n      jump\t// in\n    tag_264:\n        /* \"#utility.yul\":11965:11999   */\n      tag_121\n      jump\t// in\n    tag_263:\n        /* \"#utility.yul\":11947:12000   */\n      tag_99\n      jump\t// in\n    tag_262:\n        /* \"#utility.yul\":11934:12000   */\n      swap1\n      pop\n        /* \"#utility.yul\":11864:12006   */\n      swap2\n      swap1\n      pop\n      jump\t// out\n        /* \"#utility.yul\":12012:12087   */\n    tag_123:\n        /* \"#utility.yul\":12055:12058   */\n      0x00\n        /* \"#utility.yul\":12076:12081   */\n      dup2\n        /* \"#utility.yul\":12069:12081   */\n      swap1\n      pop\n        /* \"#utility.yul\":12012:12087   */\n      swap2\n      swap1\n      pop\n      jump\t// out\n        /* \"#utility.yul\":12093:12362   */\n    tag_124:\n        /* \"#utility.yul\":12203:12242   */\n      tag_267\n        /* \"#utility.yul\":12234:12241   */\n      dup4\n        /* \"#utility.yul\":12203:12242   */\n      tag_122\n      jump\t// in\n    tag_267:\n        /* \"#utility.yul\":12264:12355   */\n      tag_268\n        /* \"#utility.yul\":12313:12354   */\n      tag_269\n        /* \"#utility.yul\":12337:12353   */\n      dup3\n        /* \"#utility.yul\":12313:12354   */\n      tag_123\n      jump\t// in\n    tag_269:\n        /* \"#utility.yul\":12305:12311   */\n      dup5\n        /* \"#utility.yul\":12298:12302   */\n      dup5\n        /* \"#utility.yul\":12292:12303   */\n      sload\n        /* \"#utility.yul\":12264:12355   */\n      tag_120\n      jump\t// in\n    tag_268:\n        /* \"#utility.yul\":12258:12262   */\n      dup3\n        /* \"#utility.yul\":12251:12356   */\n      sstore\n        /* \"#utility.yul\":12169:12362   */\n      pop\n        /* \"#utility.yul\":12093:12362   */\n      pop\n      pop\n      pop\n      jump\t// out\n        /* \"#utility.yul\":12368:12441   */\n    tag_125:\n        /* \"#utility.yul\":12413:12416   */\n      0x00\n        /* \"#utility.yul\":12434:12435   */\n      0x00\n        /* \"#utility.yul\":12427:12435   */\n      swap1\n      pop\n        /* \"#utility.yul\":12368:12441   */\n      swap1\n      jump\t// out\n        /* \"#utility.yul\":12447:12636   */\n    tag_126:\n        /* \"#utility.yul\":12524:12556   */\n      tag_272\n      tag_125\n      jump\t// in\n    tag_272:\n        /* \"#utility.yul\":12565:12630   */\n      tag_273\n        /* \"#utility.yul\":12623:12629   */\n      dup2\n        /* \"#utility.yul\":12615:12621   */\n      dup5\n        /* \"#utility.yul\":12609:12613   */\n      dup5\n        /* \"#utility.yul\":12565:12630   */\n      tag_124\n      jump\t// in\n    tag_273:\n        /* \"#utility.yul\":12500:12636   */\n      pop\n        /* \"#utility.yul\":12447:12636   */\n      pop\n      pop\n      jump\t// out\n        /* \"#utility.yul\":12642:12828   */\n    tag_127:\n        /* \"#utility.yul\":12702:12822   */\n    tag_275:\n        /* \"#utility.yul\":12719:12722   */\n      dup2\n        /* \"#utility.yul\":12712:12717   */\n      dup2\n        /* \"#utility.yul\":12709:12723   */\n      lt\n        /* \"#utility.yul\":12702:12822   */\n      iszero\n      tag_277\n      jumpi\n        /* \"#utility.yul\":12773:12812   */\n      tag_278\n        /* \"#utility.yul\":12810:12811   */\n      0x00\n        /* \"#utility.yul\":12803:12808   */\n      dup3\n        /* \"#utility.yul\":12773:12812   */\n      tag_126\n      jump\t// in\n    tag_278:\n        /* \"#utility.yul\":12746:12747   */\n      0x01\n        /* \"#utility.yul\":12739:12744   */\n      dup2\n        /* \"#utility.yul\":12735:12748   */\n      add\n        /* \"#utility.yul\":12726:12748   */\n      swap1\n      pop\n        /* \"#utility.yul\":12702:12822   */\n      jump(tag_275)\n    tag_277:\n        /* \"#utility.yul\":12642:12828   */\n      pop\n      pop\n      jump\t// out\n        /* \"#utility.yul\":12834:13377   */\n    tag_128:\n        /* \"#utility.yul\":12935:12937   */\n      0x1f\n        /* \"#utility.yul\":12930:12933   */\n      dup3\n        /* \"#utility.yul\":12927:12938   */\n      gt\n        /* \"#utility.yul\":12924:13370   */\n      iszero\n      tag_280\n      jumpi\n        /* \"#utility.yul\":12969:13007   */\n      tag_281\n        /* \"#utility.yul\":13001:13006   */\n      dup2\n        /* \"#utility.yul\":12969:13007   */\n      tag_117\n      jump\t// in\n    tag_281:\n        /* \"#utility.yul\":13053:13082   */\n      tag_282\n        /* \"#utility.yul\":13071:13081   */\n      dup5\n        /* \"#utility.yul\":13053:13082   */\n      tag_118\n      jump\t// in\n    tag_282:\n        /* \"#utility.yul\":13043:13051   */\n      dup2\n        /* \"#utility.yul\":13039:13083   */\n      add\n        /* \"#utility.yul\":13236:13238   */\n      0x20\n        /* \"#utility.yul\":13224:13234   */\n      dup6\n        /* \"#utility.yul\":13221:13239   */\n      lt\n        /* \"#utility.yul\":13218:13267   */\n      iszero\n      tag_283\n      jumpi\n        /* \"#utility.yul\":13257:13265   */\n      dup2\n        /* \"#utility.yul\":13242:13265   */\n      swap1\n      pop\n        /* \"#utility.yul\":13218:13267   */\n    tag_283:\n        /* \"#utility.yul\":13280:13360   */\n      tag_284\n        /* \"#utility.yul\":13336:13358   */\n      tag_285\n        /* \"#utility.yul\":13354:13357   */\n      dup6\n        /* \"#utility.yul\":13336:13358   */\n      tag_118\n      jump\t// in\n    tag_285:\n        /* \"#utility.yul\":13326:13334   */\n      dup4\n        /* \"#utility.yul\":13322:13359   */\n      add\n        /* \"#utility.yul\":13309:13320   */\n      dup3\n        /* \"#utility.yul\":13280:13360   */\n      tag_127\n      jump\t// in\n    tag_284:\n        /* \"#utility.yul\":12939:13370   */\n      pop\n      pop\n        /* \"#utility.yul\":12924:13370   */\n    tag_280:\n        /* \"#utility.yul\":12834:13377   */\n      pop\n      pop\n      pop\n      jump\t// out\n        /* \"#utility.yul\":13383:13500   */\n    tag_129:\n        /* \"#utility.yul\":13437:13445   */\n      0x00\n        /* \"#utility.yul\":13487:13492   */\n      dup3\n        /* \"#utility.yul\":13481:13485   */\n      dup3\n        /* \"#utility.yul\":13477:13493   */\n      shr\n        /* \"#utility.yul\":13456:13493   */\n      swap1\n      pop\n        /* \"#utility.yul\":13383:13500   */\n      swap3\n      swap2\n      pop\n      pop\n      jump\t// out\n        /* \"#utility.yul\":13506:13675   */\n    tag_130:\n        /* \"#utility.yul\":13550:13556   */\n      0x00\n        /* \"#utility.yul\":13583:13634   */\n      tag_288\n        /* \"#utility.yul\":13631:13632   */\n      0x00\n        /* \"#utility.yul\":13627:13633   */\n      not\n        /* \"#utility.yul\":13619:13624   */\n      dup5\n        /* \"#utility.yul\":13616:13617   */\n      0x08\n        /* \"#utility.yul\":13612:13625   */\n      mul\n        /* \"#utility.yul\":13583:13634   */\n      tag_129\n      jump\t// in\n    tag_288:\n        /* \"#utility.yul\":13579:13635   */\n      not\n        /* \"#utility.yul\":13664:13668   */\n      dup1\n        /* \"#utility.yul\":13658:13662   */\n      dup4\n        /* \"#utility.yul\":13654:13669   */\n      and\n        /* \"#utility.yul\":13644:13669   */\n      swap2\n      pop\n        /* \"#utility.yul\":13557:13675   */\n      pop\n        /* \"#utility.yul\":13506:13675   */\n      swap3\n      swap2\n      pop\n      pop\n      jump\t// out\n        /* \"#utility.yul\":13680:13975   */\n    tag_131:\n        /* \"#utility.yul\":13756:13760   */\n      0x00\n        /* \"#utility.yul\":13902:13931   */\n      tag_290\n        /* \"#utility.yul\":13927:13930   */\n      dup4\n        /* \"#utility.yul\":13921:13925   */\n      dup4\n        /* \"#utility.yul\":13902:13931   */\n      tag_130\n      jump\t// in\n    tag_290:\n        /* \"#utility.yul\":13894:13931   */\n      swap2\n      pop\n        /* \"#utility.yul\":13964:13967   */\n      dup3\n        /* \"#utility.yul\":13961:13962   */\n      0x02\n        /* \"#utility.yul\":13957:13968   */\n      mul\n        /* \"#utility.yul\":13951:13955   */\n      dup3\n        /* \"#utility.yul\":13948:13969   */\n      or\n        /* \"#utility.yul\":13940:13969   */\n      swap1\n      pop\n        /* \"#utility.yul\":13680:13975   */\n      swap3\n      swap2\n      pop\n      pop\n      jump\t// out\n        /* \"#utility.yul\":13980:15375   */\n    tag_48:\n        /* \"#utility.yul\":14097:14134   */\n      tag_292\n        /* \"#utility.yul\":14130:14133   */\n      dup3\n        /* \"#utility.yul\":14097:14134   */\n      tag_105\n      jump\t// in\n    tag_292:\n        /* \"#utility.yul\":14199:14217   */\n      0xffffffffffffffff\n        /* \"#utility.yul\":14191:14197   */\n      dup2\n        /* \"#utility.yul\":14188:14218   */\n      gt\n        /* \"#utility.yul\":14185:14241   */\n      iszero\n      tag_293\n      jumpi\n        /* \"#utility.yul\":14221:14239   */\n      tag_294\n      tag_92\n      jump\t// in\n    tag_294:\n        /* \"#utility.yul\":14185:14241   */\n    tag_293:\n        /* \"#utility.yul\":14265:14303   */\n      tag_295\n        /* \"#utility.yul\":14297:14301   */\n      dup3\n        /* \"#utility.yul\":14291:14302   */\n      sload\n        /* \"#utility.yul\":14265:14303   */\n      tag_52\n      jump\t// in\n    tag_295:\n        /* \"#utility.yul\":14350:14417   */\n      tag_296\n        /* \"#utility.yul\":14410:14416   */\n      dup3\n        /* \"#utility.yul\":14402:14408   */\n      dup3\n        /* \"#utility.yul\":14396:14400   */\n      dup6\n        /* \"#utility.yul\":14350:14417   */\n      tag_128\n      jump\t// in\n    tag_296:\n        /* \"#utility.yul\":14444:14445   */\n      0x00\n        /* \"#utility.yul\":14468:14472   */\n      0x20\n        /* \"#utility.yul\":14455:14472   */\n      swap1\n      pop\n        /* \"#utility.yul\":14500:14502   */\n      0x1f\n        /* \"#utility.yul\":14492:14498   */\n      dup4\n        /* \"#utility.yul\":14489:14503   */\n      gt\n        /* \"#utility.yul\":14517:14518   */\n      0x01\n        /* \"#utility.yul\":14512:15130   */\n      dup2\n      eq\n      tag_298\n      jumpi\n        /* \"#utility.yul\":15174:15175   */\n      0x00\n        /* \"#utility.yul\":15191:15197   */\n      dup5\n        /* \"#utility.yul\":15188:15265   */\n      iszero\n      tag_299\n      jumpi\n        /* \"#utility.yul\":15240:15249   */\n      dup3\n        /* \"#utility.yul\":15235:15238   */\n      dup8\n        /* \"#utility.yul\":15231:15250   */\n      add\n        /* \"#utility.yul\":15225:15251   */\n      mload\n        /* \"#utility.yul\":15216:15251   */\n      swap1\n      pop\n        /* \"#utility.yul\":15188:15265   */\n    tag_299:\n        /* \"#utility.yul\":15291:15358   */\n      tag_300\n        /* \"#utility.yul\":15351:15357   */\n      dup6\n        /* \"#utility.yul\":15344:15349   */\n      dup3\n        /* \"#utility.yul\":15291:15358   */\n      tag_131\n      jump\t// in\n    tag_300:\n        /* \"#utility.yul\":15285:15289   */\n      dup7\n        /* \"#utility.yul\":15278:15359   */\n      sstore\n        /* \"#utility.yul\":15147:15369   */\n      pop\n        /* \"#utility.yul\":14482:15369   */\n      jump(tag_297)\n        /* \"#utility.yul\":14512:15130   */\n    tag_298:\n        /* \"#utility.yul\":14564:14568   */\n      0x1f\n        /* \"#utility.yul\":14560:14569   */\n      not\n        /* \"#utility.yul\":14552:14558   */\n      dup5\n        /* \"#utility.yul\":14548:14570   */\n      and\n        /* \"#utility.yul\":14598:14635   */\n      tag_301\n        /* \"#utility.yul\":14630:14634   */\n      dup7\n        /* \"#utility.yul\":14598:14635   */\n      tag_117\n      jump\t// in\n    tag_301:\n        /* \"#utility.yul\":14657:14658   */\n      0x00\n        /* \"#utility.yul\":14671:14879   */\n    tag_302:\n        /* \"#utility.yul\":14685:14692   */\n      dup3\n        /* \"#utility.yul\":14682:14683   */\n      dup2\n        /* \"#utility.yul\":14679:14693   */\n      lt\n        /* \"#utility.yul\":14671:14879   */\n      iszero\n      tag_304\n      jumpi\n        /* \"#utility.yul\":14764:14773   */\n      dup5\n        /* \"#utility.yul\":14759:14762   */\n      dup10\n        /* \"#utility.yul\":14755:14774   */\n      add\n        /* \"#utility.yul\":14749:14775   */\n      mload\n        /* \"#utility.yul\":14741:14747   */\n      dup3\n        /* \"#utility.yul\":14734:14776   */\n      sstore\n        /* \"#utility.yul\":14815:14816   */\n      0x01\n        /* \"#utility.yul\":14807:14813   */\n      dup3\n        /* \"#utility.yul\":14803:14817   */\n      add\n        /* \"#utility.yul\":14793:14817   */\n      swap2\n      pop\n        /* \"#utility.yul\":14862:14864   */\n      0x20\n        /* \"#utility.yul\":14851:14860   */\n      dup6\n        /* \"#utility.yul\":14847:14865   */\n      add\n        /* \"#utility.yul\":14834:14865   */\n      swap5\n      pop\n        /* \"#utility.yul\":14708:14712   */\n      0x20\n        /* \"#utility.yul\":14705:14706   */\n      dup2\n        /* \"#utility.yul\":14701:14713   */\n      add\n        /* \"#utility.yul\":14696:14713   */\n      swap1\n      pop\n        /* \"#utility.yul\":14671:14879   */\n      jump(tag_302)\n    tag_304:\n        /* \"#utility.yul\":14907:14913   */\n      dup7\n        /* \"#utility.yul\":14898:14905   */\n      dup4\n        /* \"#utility.yul\":14895:14914   */\n      lt\n        /* \"#utility.yul\":14892:15071   */\n      iszero\n      tag_305\n      jumpi\n        /* \"#utility.yul\":14965:14974   */\n      dup5\n        /* \"#utility.yul\":14960:14963   */\n      dup10\n        /* \"#utility.yul\":14956:14975   */\n      add\n        /* \"#utility.yul\":14950:14976   */\n      mload\n        /* \"#utility.yul\":15008:15056   */\n      tag_306\n        /* \"#utility.yul\":15050:15054   */\n      0x1f\n        /* \"#utility.yul\":15042:15048   */\n      dup10\n        /* \"#utility.yul\":15038:15055   */\n      and\n        /* \"#utility.yul\":15027:15036   */\n      dup3\n        /* \"#utility.yul\":15008:15056   */\n      tag_130\n      jump\t// in\n    tag_306:\n        /* \"#utility.yul\":15000:15006   */\n      dup4\n        /* \"#utility.yul\":14993:15057   */\n      sstore\n        /* \"#utility.yul\":14915:15071   */\n      pop\n        /* \"#utility.yul\":14892:15071   */\n    tag_305:\n        /* \"#utility.yul\":15117:15118   */\n      0x01\n        /* \"#utility.yul\":15113:15114   */\n      0x02\n        /* \"#utility.yul\":15105:15111   */\n      dup9\n        /* \"#utility.yul\":15101:15115   */\n      mul\n        /* \"#utility.yul\":15097:15119   */\n      add\n        /* \"#utility.yul\":15091:15095   */\n      dup9\n        /* \"#utility.yul\":15084:15120   */\n      sstore\n        /* \"#utility.yul\":14519:15130   */\n      pop\n      pop\n      pop\n        /* \"#utility.yul\":14482:15369   */\n    tag_297:\n      pop\n        /* \"#utility.yul\":14072:15375   */\n      pop\n      pop\n      pop\n        /* \"#utility.yul\":13980:15375   */\n      pop\n      pop\n      jump\t// out\n        /* \"#utility.yul\":15381:15561   */\n    tag_132:\n        /* \"#utility.yul\":15429:15506   */\n      0x4e487b7100000000000000000000000000000000000000000000000000000000\n        /* \"#utility.yul\":15426:15427   */\n      0x00\n        /* \"#utility.yul\":15419:15507   */\n      mstore\n        /* \"#utility.yul\":15526:15530   */\n      0x11\n        /* \"#utility.yul\":15523:15524   */\n      0x04\n        /* \"#utility.yul\":15516:15531   */\n      mstore\n        /* \"#utility.yul\":15550:15554   */\n      0x24\n        /* \"#utility.yul\":15547:15548   */\n      0x00\n        /* \"#utility.yul\":15540:15555   */\n      revert\n        /* \"#utility.yul\":15567:15800   */\n    tag_50:\n        /* \"#utility.yul\":15606:15609   */\n      0x00\n        /* \"#utility.yul\":15629:15653   */\n      tag_309\n        /* \"#utility.yul\":15647:15652   */\n      dup3\n        /* \"#utility.yul\":15629:15653   */\n      tag_99\n      jump\t// in\n    tag_309:\n        /* \"#utility.yul\":15620:15653   */\n      swap2\n      pop\n        /* \"#utility.yul\":15675:15741   */\n      0xffffffffffffffffffffffffffffffffffffffffffffffffffffffffffffffff\n        /* \"#utility.yul\":15668:15673   */\n      dup3\n        /* \"#utility.yul\":15665:15742   */\n      sub\n        /* \"#utility.yul\":15662:15765   */\n      tag_310\n      jumpi\n        /* \"#utility.yul\":15745:15763   */\n      tag_311\n      tag_132\n      jump\t// in\n    tag_311:\n        /* \"#utility.yul\":15662:15765   */\n    tag_310:\n        /* \"#utility.yul\":15792:15793   */\n      0x01\n        /* \"#utility.yul\":15785:15790   */\n      dup3\n        /* \"#utility.yul\":15781:15794   */\n      add\n        /* \"#utility.yul\":15774:15794   */\n      swap1\n      pop\n        /* \"#utility.yul\":15567:15800   */\n      swap2\n      swap1\n      pop\n      jump\t// out\n        /* \"#utility.yul\":15806:15976   */\n    tag_133:\n        /* \"#utility.yul\":15946:15968   */\n      0x4576656e7420646f6573206e6f74204578697374000000000000000000000000\n        /* \"#utility.yul\":15942:15943   */\n      0x00\n        /* \"#utility.yul\":15934:15940   */\n      dup3\n        /* \"#utility.yul\":15930:15944   */\n      add\n        /* \"#utility.yul\":15923:15969   */\n      mstore\n        /* \"#utility.yul\":15806:15976   */\n      pop\n      jump\t// out\n        /* \"#utility.yul\":15982:16348   */\n    tag_134:\n        /* \"#utility.yul\":16124:16127   */\n      0x00\n        /* \"#utility.yul\":16145:16212   */\n      tag_314\n        /* \"#utility.yul\":16209:16211   */\n      0x14\n        /* \"#utility.yul\":16204:16207   */\n      dup4\n        /* \"#utility.yul\":16145:16212   */\n      tag_106\n      jump\t// in\n    tag_314:\n        /* \"#utility.yul\":16138:16212   */\n      swap2\n      pop\n        /* \"#utility.yul\":16221:16314   */\n      tag_315\n        /* \"#utility.yul\":16310:16313   */\n      dup3\n        /* \"#utility.yul\":16221:16314   */\n      tag_133\n      jump\t// in\n    tag_315:\n        /* \"#utility.yul\":16339:16341   */\n      0x20\n        /* \"#utility.yul\":16334:16337   */\n      dup3\n        /* \"#utility.yul\":16330:16342   */\n      add\n        /* \"#utility.yul\":16323:16342   */\n      swap1\n      pop\n        /* \"#utility.yul\":15982:16348   */\n      swap2\n      swap1\n      pop\n      jump\t// out\n        /* \"#utility.yul\":16354:16773   */\n    tag_60:\n        /* \"#utility.yul\":16520:16524   */\n      0x00\n        /* \"#utility.yul\":16558:16560   */\n      0x20\n        /* \"#utility.yul\":16547:16556   */\n      dup3\n        /* \"#utility.yul\":16543:16561   */\n      add\n        /* \"#utility.yul\":16535:16561   */\n      swap1\n      pop\n        /* \"#utility.yul\":16607:16616   */\n      dup2\n        /* \"#utility.yul\":16601:16605   */\n      dup2\n        /* \"#utility.yul\":16597:16617   */\n      sub\n        /* \"#utility.yul\":16593:16594   */\n      0x00\n        /* \"#utility.yul\":16582:16591   */\n      dup4\n        /* \"#utility.yul\":16578:16595   */\n      add\n        /* \"#utility.yul\":16571:16618   */\n      mstore\n        /* \"#utility.yul\":16635:16766   */\n      tag_317\n        /* \"#utility.yul\":16761:16765   */\n      dup2\n        /* \"#utility.yul\":16635:16766   */\n      tag_134\n      jump\t// in\n    tag_317:\n        /* \"#utility.yul\":16627:16766   */\n      swap1\n      pop\n        /* \"#utility.yul\":16354:16773   */\n      swap2\n      swap1\n      pop\n      jump\t// out\n        /* \"#utility.yul\":16779:16955   */\n    tag_135:\n        /* \"#utility.yul\":16919:16947   */\n      0x4576656e742068617320616c6c7265616479206f636375726564000000000000\n        /* \"#utility.yul\":16915:16916   */\n      0x00\n        /* \"#utility.yul\":16907:16913   */\n      dup3\n        /* \"#utility.yul\":16903:16917   */\n      add\n        /* \"#utility.yul\":16896:16948   */\n      mstore\n        /* \"#utility.yul\":16779:16955   */\n      pop\n      jump\t// out\n        /* \"#utility.yul\":16961:17327   */\n    tag_136:\n        /* \"#utility.yul\":17103:17106   */\n      0x00\n        /* \"#utility.yul\":17124:17191   */\n      tag_320\n        /* \"#utility.yul\":17188:17190   */\n      0x1a\n        /* \"#utility.yul\":17183:17186   */\n      dup4\n        /* \"#utility.yul\":17124:17191   */\n      tag_106\n      jump\t// in\n    tag_320:\n        /* \"#utility.yul\":17117:17191   */\n      swap2\n      pop\n        /* \"#utility.yul\":17200:17293   */\n      tag_321\n        /* \"#utility.yul\":17289:17292   */\n      dup3\n        /* \"#utility.yul\":17200:17293   */\n      tag_135\n      jump\t// in\n    tag_321:\n        /* \"#utility.yul\":17318:17320   */\n      0x20\n        /* \"#utility.yul\":17313:17316   */\n      dup3\n        /* \"#utility.yul\":17309:17321   */\n      add\n        /* \"#utility.yul\":17302:17321   */\n      swap1\n      pop\n        /* \"#utility.yul\":16961:17327   */\n      swap2\n      swap1\n      pop\n      jump\t// out\n        /* \"#utility.yul\":17333:17752   */\n    tag_63:\n        /* \"#utility.yul\":17499:17503   */\n      0x00\n        /* \"#utility.yul\":17537:17539   */\n      0x20\n        /* \"#utility.yul\":17526:17535   */\n      dup3\n        /* \"#utility.yul\":17522:17540   */\n      add\n        /* \"#utility.yul\":17514:17540   */\n      swap1\n      pop\n        /* \"#utility.yul\":17586:17595   */\n      dup2\n        /* \"#utility.yul\":17580:17584   */\n      dup2\n        /* \"#utility.yul\":17576:17596   */\n      sub\n        /* \"#utility.yul\":17572:17573   */\n      0x00\n        /* \"#utility.yul\":17561:17570   */\n      dup4\n        /* \"#utility.yul\":17557:17574   */\n      add\n        /* \"#utility.yul\":17550:17597   */\n      mstore\n        /* \"#utility.yul\":17614:17745   */\n      tag_323\n        /* \"#utility.yul\":17740:17744   */\n      dup2\n        /* \"#utility.yul\":17614:17745   */\n      tag_136\n      jump\t// in\n    tag_323:\n        /* \"#utility.yul\":17606:17745   */\n      swap1\n      pop\n        /* \"#utility.yul\":17333:17752   */\n      swap2\n      swap1\n      pop\n      jump\t// out\n        /* \"#utility.yul\":17758:18168   */\n    tag_65:\n        /* \"#utility.yul\":17798:17805   */\n      0x00\n        /* \"#utility.yul\":17821:17841   */\n      tag_325\n        /* \"#utility.yul\":17839:17840   */\n      dup3\n        /* \"#utility.yul\":17821:17841   */\n      tag_99\n      jump\t// in\n    tag_325:\n        /* \"#utility.yul\":17816:17841   */\n      swap2\n      pop\n        /* \"#utility.yul\":17855:17875   */\n      tag_326\n        /* \"#utility.yul\":17873:17874   */\n      dup4\n        /* \"#utility.yul\":17855:17875   */\n      tag_99\n      jump\t// in\n    tag_326:\n        /* \"#utility.yul\":17850:17875   */\n      swap3\n      pop\n        /* \"#utility.yul\":17910:17911   */\n      dup3\n        /* \"#utility.yul\":17907:17908   */\n      dup3\n        /* \"#utility.yul\":17903:17912   */\n      mul\n        /* \"#utility.yul\":17932:17962   */\n      tag_327\n        /* \"#utility.yul\":17950:17961   */\n      dup2\n        /* \"#utility.yul\":17932:17962   */\n      tag_99\n      jump\t// in\n    tag_327:\n        /* \"#utility.yul\":17921:17962   */\n      swap2\n      pop\n        /* \"#utility.yul\":18111:18112   */\n      dup3\n        /* \"#utility.yul\":18102:18109   */\n      dup3\n        /* \"#utility.yul\":18098:18113   */\n      div\n        /* \"#utility.yul\":18095:18096   */\n      dup5\n        /* \"#utility.yul\":18092:18114   */\n      eq\n        /* \"#utility.yul\":18072:18073   */\n      dup4\n        /* \"#utility.yul\":18065:18074   */\n      iszero\n        /* \"#utility.yul\":18045:18128   */\n      or\n        /* \"#utility.yul\":18022:18161   */\n      tag_328\n      jumpi\n        /* \"#utility.yul\":18141:18159   */\n      tag_329\n      tag_132\n      jump\t// in\n    tag_329:\n        /* \"#utility.yul\":18022:18161   */\n    tag_328:\n        /* \"#utility.yul\":17806:18168   */\n      pop\n        /* \"#utility.yul\":17758:18168   */\n      swap3\n      swap2\n      pop\n      pop\n      jump\t// out\n        /* \"#utility.yul\":18174:18343   */\n    tag_137:\n        /* \"#utility.yul\":18314:18335   */\n      0x4574686572206973206e6f7420656e6f69676800000000000000000000000000\n        /* \"#utility.yul\":18310:18311   */\n      0x00\n        /* \"#utility.yul\":18302:18308   */\n      dup3\n        /* \"#utility.yul\":18298:18312   */\n      add\n        /* \"#utility.yul\":18291:18336   */\n      mstore\n        /* \"#utility.yul\":18174:18343   */\n      pop\n      jump\t// out\n        /* \"#utility.yul\":18349:18715   */\n    tag_138:\n        /* \"#utility.yul\":18491:18494   */\n      0x00\n        /* \"#utility.yul\":18512:18579   */\n      tag_332\n        /* \"#utility.yul\":18576:18578   */\n      0x13\n        /* \"#utility.yul\":18571:18574   */\n      dup4\n        /* \"#utility.yul\":18512:18579   */\n      tag_106\n      jump\t// in\n    tag_332:\n        /* \"#utility.yul\":18505:18579   */\n      swap2\n      pop\n        /* \"#utility.yul\":18588:18681   */\n      tag_333\n        /* \"#utility.yul\":18677:18680   */\n      dup3\n        /* \"#utility.yul\":18588:18681   */\n      tag_137\n      jump\t// in\n    tag_333:\n        /* \"#utility.yul\":18706:18708   */\n      0x20\n        /* \"#utility.yul\":18701:18704   */\n      dup3\n        /* \"#utility.yul\":18697:18709   */\n      add\n        /* \"#utility.yul\":18690:18709   */\n      swap1\n      pop\n        /* \"#utility.yul\":18349:18715   */\n      swap2\n      swap1\n      pop\n      jump\t// out\n        /* \"#utility.yul\":18721:19140   */\n    tag_68:\n        /* \"#utility.yul\":18887:18891   */\n      0x00\n        /* \"#utility.yul\":18925:18927   */\n      0x20\n        /* \"#utility.yul\":18914:18923   */\n      dup3\n        /* \"#utility.yul\":18910:18928   */\n      add\n        /* \"#utility.yul\":18902:18928   */\n      swap1\n      pop\n        /* \"#utility.yul\":18974:18983   */\n      dup2\n        /* \"#utility.yul\":18968:18972   */\n      dup2\n        /* \"#utility.yul\":18964:18984   */\n      sub\n        /* \"#utility.yul\":18960:18961   */\n      0x00\n        /* \"#utility.yul\":18949:18958   */\n      dup4\n        /* \"#utility.yul\":18945:18962   */\n      add\n        /* \"#utility.yul\":18938:18985   */\n      mstore\n        /* \"#utility.yul\":19002:19133   */\n      tag_335\n        /* \"#utility.yul\":19128:19132   */\n      dup2\n        /* \"#utility.yul\":19002:19133   */\n      tag_138\n      jump\t// in\n    tag_335:\n        /* \"#utility.yul\":18994:19133   */\n      swap1\n      pop\n        /* \"#utility.yul\":18721:19140   */\n      swap2\n      swap1\n      pop\n      jump\t// out\n        /* \"#utility.yul\":19146:19314   */\n    tag_139:\n        /* \"#utility.yul\":19286:19306   */\n      0x4e6f7420656e6f756768207469636b6574730000000000000000000000000000\n        /* \"#utility.yul\":19282:19283   */\n      0x00\n        /* \"#utility.yul\":19274:19280   */\n      dup3\n        /* \"#utility.yul\":19270:19284   */\n      add\n        /* \"#utility.yul\":19263:19307   */\n      mstore\n        /* \"#utility.yul\":19146:19314   */\n      pop\n      jump\t// out\n        /* \"#utility.yul\":19320:19686   */\n    tag_140:\n        /* \"#utility.yul\":19462:19465   */\n      0x00\n        /* \"#utility.yul\":19483:19550   */\n      tag_338\n        /* \"#utility.yul\":19547:19549   */\n      0x12\n        /* \"#utility.yul\":19542:19545   */\n      dup4\n        /* \"#utility.yul\":19483:19550   */\n      tag_106\n      jump\t// in\n    tag_338:\n        /* \"#utility.yul\":19476:19550   */\n      swap2\n      pop\n        /* \"#utility.yul\":19559:19652   */\n      tag_339\n        /* \"#utility.yul\":19648:19651   */\n      dup3\n        /* \"#utility.yul\":19559:19652   */\n      tag_139\n      jump\t// in\n    tag_339:\n        /* \"#utility.yul\":19677:19679   */\n      0x20\n        /* \"#utility.yul\":19672:19675   */\n      dup3\n        /* \"#utility.yul\":19668:19680   */\n      add\n        /* \"#utility.yul\":19661:19680   */\n      swap1\n      pop\n        /* \"#utility.yul\":19320:19686   */\n      swap2\n      swap1\n      pop\n      jump\t// out\n        /* \"#utility.yul\":19692:20111   */\n    tag_71:\n        /* \"#utility.yul\":19858:19862   */\n      0x00\n        /* \"#utility.yul\":19896:19898   */\n      0x20\n        /* \"#utility.yul\":19885:19894   */\n      dup3\n        /* \"#utility.yul\":19881:19899   */\n      add\n        /* \"#utility.yul\":19873:19899   */\n      swap1\n      pop\n        /* \"#utility.yul\":19945:19954   */\n      dup2\n        /* \"#utility.yul\":19939:19943   */\n      dup2\n        /* \"#utility.yul\":19935:19955   */\n      sub\n        /* \"#utility.yul\":19931:19932   */\n      0x00\n        /* \"#utility.yul\":19920:19929   */\n      dup4\n        /* \"#utility.yul\":19916:19933   */\n      add\n        /* \"#utility.yul\":19909:19956   */\n      mstore\n        /* \"#utility.yul\":19973:20104   */\n      tag_341\n        /* \"#utility.yul\":20099:20103   */\n      dup2\n        /* \"#utility.yul\":19973:20104   */\n      tag_140\n      jump\t// in\n    tag_341:\n        /* \"#utility.yul\":19965:20104   */\n      swap1\n      pop\n        /* \"#utility.yul\":19692:20111   */\n      swap2\n      swap1\n      pop\n      jump\t// out\n        /* \"#utility.yul\":20117:20311   */\n    tag_73:\n        /* \"#utility.yul\":20157:20161   */\n      0x00\n        /* \"#utility.yul\":20177:20197   */\n      tag_343\n        /* \"#utility.yul\":20195:20196   */\n      dup3\n        /* \"#utility.yul\":20177:20197   */\n      tag_99\n      jump\t// in\n    tag_343:\n        /* \"#utility.yul\":20172:20197   */\n      swap2\n      pop\n        /* \"#utility.yul\":20211:20231   */\n      tag_344\n        /* \"#utility.yul\":20229:20230   */\n      dup4\n        /* \"#utility.yul\":20211:20231   */\n      tag_99\n      jump\t// in\n    tag_344:\n        /* \"#utility.yul\":20206:20231   */\n      swap3\n      pop\n        /* \"#utility.yul\":20255:20256   */\n      dup3\n        /* \"#utility.yul\":20252:20253   */\n      dup3\n        /* \"#utility.yul\":20248:20257   */\n      sub\n        /* \"#utility.yul\":20240:20257   */\n      swap1\n      pop\n        /* \"#utility.yul\":20279:20280   */\n      dup2\n        /* \"#utility.yul\":20273:20277   */\n      dup2\n        /* \"#utility.yul\":20270:20281   */\n      gt\n        /* \"#utility.yul\":20267:20304   */\n      iszero\n      tag_345\n      jumpi\n        /* \"#utility.yul\":20284:20302   */\n      tag_346\n      tag_132\n      jump\t// in\n    tag_346:\n        /* \"#utility.yul\":20267:20304   */\n    tag_345:\n        /* \"#utility.yul\":20117:20311   */\n      swap3\n      swap2\n      pop\n      pop\n      jump\t// out\n        /* \"#utility.yul\":20317:20508   */\n    tag_75:\n        /* \"#utility.yul\":20357:20360   */\n      0x00\n        /* \"#utility.yul\":20376:20396   */\n      tag_348\n        /* \"#utility.yul\":20394:20395   */\n      dup3\n        /* \"#utility.yul\":20376:20396   */\n      tag_99\n      jump\t// in\n    tag_348:\n        /* \"#utility.yul\":20371:20396   */\n      swap2\n      pop\n        /* \"#utility.yul\":20410:20430   */\n      tag_349\n        /* \"#utility.yul\":20428:20429   */\n      dup4\n        /* \"#utility.yul\":20410:20430   */\n      tag_99\n      jump\t// in\n    tag_349:\n        /* \"#utility.yul\":20405:20430   */\n      swap3\n      pop\n        /* \"#utility.yul\":20453:20454   */\n      dup3\n        /* \"#utility.yul\":20450:20451   */\n      dup3\n        /* \"#utility.yul\":20446:20455   */\n      add\n        /* \"#utility.yul\":20439:20455   */\n      swap1\n      pop\n        /* \"#utility.yul\":20474:20477   */\n      dup1\n        /* \"#utility.yul\":20471:20472   */\n      dup3\n        /* \"#utility.yul\":20468:20478   */\n      gt\n        /* \"#utility.yul\":20465:20501   */\n      iszero\n      tag_350\n      jumpi\n        /* \"#utility.yul\":20481:20499   */\n      tag_351\n      tag_132\n      jump\t// in\n    tag_351:\n        /* \"#utility.yul\":20465:20501   */\n    tag_350:\n        /* \"#utility.yul\":20317:20508   */\n      swap3\n      swap2\n      pop\n      pop\n      jump\t// out\n        /* \"#utility.yul\":20514:20743   */\n    tag_141:\n        /* \"#utility.yul\":20654:20688   */\n      0x596f7520646f206e6f74206861766520656e6f756768207469636b6574732074\n        /* \"#utility.yul\":20650:20651   */\n      0x00\n        /* \"#utility.yul\":20642:20648   */\n      dup3\n        /* \"#utility.yul\":20638:20652   */\n      add\n        /* \"#utility.yul\":20631:20689   */\n      mstore\n        /* \"#utility.yul\":20723:20735   */\n      0x6f207472616e7366657200000000000000000000000000000000000000000000\n        /* \"#utility.yul\":20718:20720   */\n      0x20\n        /* \"#utility.yul\":20710:20716   */\n      dup3\n        /* \"#utility.yul\":20706:20721   */\n      add\n        /* \"#utility.yul\":20699:20736   */\n      mstore\n        /* \"#utility.yul\":20514:20743   */\n      pop\n      jump\t// out\n        /* \"#utility.yul\":20749:21115   */\n    tag_142:\n        /* \"#utility.yul\":20891:20894   */\n      0x00\n        /* \"#utility.yul\":20912:20979   */\n      tag_354\n        /* \"#utility.yul\":20976:20978   */\n      0x2a\n        /* \"#utility.yul\":20971:20974   */\n      dup4\n        /* \"#utility.yul\":20912:20979   */\n      tag_106\n      jump\t// in\n    tag_354:\n        /* \"#utility.yul\":20905:20979   */\n      swap2\n      pop\n        /* \"#utility.yul\":20988:21081   */\n      tag_355\n        /* \"#utility.yul\":21077:21080   */\n      dup3\n        /* \"#utility.yul\":20988:21081   */\n      tag_141\n      jump\t// in\n    tag_355:\n        /* \"#utility.yul\":21106:21108   */\n      0x40\n        /* \"#utility.yul\":21101:21104   */\n      dup3\n        /* \"#utility.yul\":21097:21109   */\n      add\n        /* \"#utility.yul\":21090:21109   */\n      swap1\n      pop\n        /* \"#utility.yul\":20749:21115   */\n      swap2\n      swap1\n      pop\n      jump\t// out\n        /* \"#utility.yul\":21121:21540   */\n    tag_83:\n        /* \"#utility.yul\":21287:21291   */\n      0x00\n        /* \"#utility.yul\":21325:21327   */\n      0x20\n        /* \"#utility.yul\":21314:21323   */\n      dup3\n        /* \"#utility.yul\":21310:21328   */\n      add\n        /* \"#utility.yul\":21302:21328   */\n      swap1\n      pop\n        /* \"#utility.yul\":21374:21383   */\n      dup2\n        /* \"#utility.yul\":21368:21372   */\n      dup2\n        /* \"#utility.yul\":21364:21384   */\n      sub\n        /* \"#utility.yul\":21360:21361   */\n      0x00\n        /* \"#utility.yul\":21349:21358   */\n      dup4\n        /* \"#utility.yul\":21345:21362   */\n      add\n        /* \"#utility.yul\":21338:21385   */\n      mstore\n        /* \"#utility.yul\":21402:21533   */\n      tag_357\n        /* \"#utility.yul\":21528:21532   */\n      dup2\n        /* \"#utility.yul\":21402:21533   */\n      tag_142\n      jump\t// in\n    tag_357:\n        /* \"#utility.yul\":21394:21533   */\n      swap1\n      pop\n        /* \"#utility.yul\":21121:21540   */\n      swap2\n      swap1\n      pop\n      jump\t// out\n\n    auxdata: 0xa264697066735822122075b9205e4489dfa82d6c901dc2735fd5444d9479f74901381eb06744c33d83b664736f6c634300081e0033\n}\n",
				"bytecode": {
					"linkReferences": {},
					"object": "6080604052348015600e575f5ffd5b506113768061001c5f395ff3fe608060405260043610610054575f3560e01c80630374ab0b146100585780630b791430146100805780631e96917d146100c1578063298ec208146100eb5780633d23eed914610107578063dae7a13c1461012f575b5f5ffd5b348015610063575f5ffd5b5061007e60048036038101906100799190610941565b61016b565b005b34801561008b575f5ffd5b506100a660048036038101906100a191906109c1565b6102e6565b6040516100b896959493929190610a9a565b60405180910390f35b3480156100cc575f5ffd5b506100d56103c2565b6040516100e29190610b00565b60405180910390f35b61010560048036038101906101009190610b19565b6103c8565b005b348015610112575f5ffd5b5061012d60048036038101906101289190610b81565b61059f565b005b34801561013a575f5ffd5b5061015560048036038101906101509190610bd1565b6107a1565b6040516101629190610b00565b60405180910390f35b4283116101ad576040517f08c379a00000000000000000000000000000000000000000000000000000000081526004016101a490610c7f565b60405180910390fd5b5f81116101ef576040517f08c379a00000000000000000000000000000000000000000000000000000000081526004016101e690610d0d565b60405180910390fd5b6040518060c001604052803373ffffffffffffffffffffffffffffffffffffffff168152602001858152602001848152602001838152602001828152602001828152505f5f60025481526020019081526020015f205f820151815f015f6101000a81548173ffffffffffffffffffffffffffffffffffffffff021916908373ffffffffffffffffffffffffffffffffffffffff160217905550602082015181600101908161029d9190610f28565b5060408201518160020155606082015181600301556080820151816004015560a0820151816005015590505060025f8154809291906102db90611024565b919050555050505050565b5f602052805f5260405f205f91509050805f015f9054906101000a900473ffffffffffffffffffffffffffffffffffffffff169080600101805461032990610d58565b80601f016020809104026020016040519081016040528092919081815260200182805461035590610d58565b80156103a05780601f10610377576101008083540402835291602001916103a0565b820191905f5260205f20905b81548152906001019060200180831161038357829003601f168201915b5050505050908060020154908060030154908060040154908060050154905086565b60025481565b5f5f5f8481526020019081526020015f20600201540361041d576040517f08c379a0000000000000000000000000000000000000000000000000000000008152600401610414906110b5565b60405180910390fd5b425f5f8481526020019081526020015f206002015411610472576040517f08c379a00000000000000000000000000000000000000000000000000000000081526004016104699061111d565b60405180910390fd5b5f5f5f8481526020019081526020015f209050818160030154610495919061113b565b3410156104d7576040517f08c379a00000000000000000000000000000000000000000000000000000000081526004016104ce906111c6565b60405180910390fd5b818160050154101561051e576040517f08c379a00000000000000000000000000000000000000000000000000000000081526004016105159061122e565b60405180910390fd5b81816005015f828254610531919061124c565b925050819055508160015f3373ffffffffffffffffffffffffffffffffffffffff1673ffffffffffffffffffffffffffffffffffffffff1681526020019081526020015f205f8581526020019081526020015f205f828254610593919061127f565b92505081905550505050565b5f5f5f8581526020019081526020015f2060020154036105f4576040517f08c379a00000000000000000000000000000000000000000000000000000000081526004016105eb906110b5565b60405180910390fd5b425f5f8581526020019081526020015f206002015411610649576040517f08c379a00000000000000000000000000000000000000000000000000000000081526004016106409061111d565b60405180910390fd5b8160015f3373ffffffffffffffffffffffffffffffffffffffff1673ffffffffffffffffffffffffffffffffffffffff1681526020019081526020015f205f8581526020019081526020015f205410156106d8576040517f08c379a00000000000000000000000000000000000000000000000000000000081526004016106cf90611322565b60405180910390fd5b8160015f3373ffffffffffffffffffffffffffffffffffffffff1673ffffffffffffffffffffffffffffffffffffffff1681526020019081526020015f205f8581526020019081526020015f205f828254610733919061124c565b925050819055508160015f8373ffffffffffffffffffffffffffffffffffffffff1673ffffffffffffffffffffffffffffffffffffffff1681526020019081526020015f205f8581526020019081526020015f205f828254610795919061127f565b92505081905550505050565b6001602052815f5260405f20602052805f5260405f205f91509150505481565b5f604051905090565b5f5ffd5b5f5ffd5b5f5ffd5b5f5ffd5b5f601f19601f8301169050919050565b7f4e487b71000000000000000000000000000000000000000000000000000000005f52604160045260245ffd5b610820826107da565b810181811067ffffffffffffffff8211171561083f5761083e6107ea565b5b80604052505050565b5f6108516107c1565b905061085d8282610817565b919050565b5f67ffffffffffffffff82111561087c5761087b6107ea565b5b610885826107da565b9050602081019050919050565b828183375f83830152505050565b5f6108b26108ad84610862565b610848565b9050828152602081018484840111156108ce576108cd6107d6565b5b6108d9848285610892565b509392505050565b5f82601f8301126108f5576108f46107d2565b5b81356109058482602086016108a0565b91505092915050565b5f819050919050565b6109208161090e565b811461092a575f5ffd5b50565b5f8135905061093b81610917565b92915050565b5f5f5f5f60808587031215610959576109586107ca565b5b5f85013567ffffffffffffffff811115610976576109756107ce565b5b610982878288016108e1565b94505060206109938782880161092d565b93505060406109a48782880161092d565b92505060606109b58782880161092d565b91505092959194509250565b5f602082840312156109d6576109d56107ca565b5b5f6109e38482850161092d565b91505092915050565b5f73ffffffffffffffffffffffffffffffffffffffff82169050919050565b5f610a15826109ec565b9050919050565b610a2581610a0b565b82525050565b5f81519050919050565b5f82825260208201905092915050565b8281835e5f83830152505050565b5f610a5d82610a2b565b610a678185610a35565b9350610a77818560208601610a45565b610a80816107da565b840191505092915050565b610a948161090e565b82525050565b5f60c082019050610aad5f830189610a1c565b8181036020830152610abf8188610a53565b9050610ace6040830187610a8b565b610adb6060830186610a8b565b610ae86080830185610a8b565b610af560a0830184610a8b565b979650505050505050565b5f602082019050610b135f830184610a8b565b92915050565b5f5f60408385031215610b2f57610b2e6107ca565b5b5f610b3c8582860161092d565b9250506020610b4d8582860161092d565b9150509250929050565b610b6081610a0b565b8114610b6a575f5ffd5b50565b5f81359050610b7b81610b57565b92915050565b5f5f5f60608486031215610b9857610b976107ca565b5b5f610ba58682870161092d565b9350506020610bb68682870161092d565b9250506040610bc786828701610b6d565b9150509250925092565b5f5f60408385031215610be757610be66107ca565b5b5f610bf485828601610b6d565b9250506020610c058582860161092d565b9150509250929050565b7f596f752063616e206f7267616e697a65204576656e747320666f7220667574755f8201527f7265206461746573000000000000000000000000000000000000000000000000602082015250565b5f610c69602883610a35565b9150610c7482610c0f565b604082019050919050565b5f6020820190508181035f830152610c9681610c5d565b9050919050565b7f796f752063616e206f7267616e697365206576656e74206f6e207468652069665f8201527f20796f7520637265617465207469636b657473206d6f7265207468616e203000602082015250565b5f610cf7603f83610a35565b9150610d0282610c9d565b604082019050919050565b5f6020820190508181035f830152610d2481610ceb565b9050919050565b7f4e487b71000000000000000000000000000000000000000000000000000000005f52602260045260245ffd5b5f6002820490506001821680610d6f57607f821691505b602082108103610d8257610d81610d2b565b5b50919050565b5f819050815f5260205f209050919050565b5f6020601f8301049050919050565b5f82821b905092915050565b5f60088302610de47fffffffffffffffffffffffffffffffffffffffffffffffffffffffffffffffff82610da9565b610dee8683610da9565b95508019841693508086168417925050509392505050565b5f819050919050565b5f610e29610e24610e1f8461090e565b610e06565b61090e565b9050919050565b5f819050919050565b610e4283610e0f565b610e56610e4e82610e30565b848454610db5565b825550505050565b5f5f905090565b610e6d610e5e565b610e78818484610e39565b505050565b5b81811015610e9b57610e905f82610e65565b600181019050610e7e565b5050565b601f821115610ee057610eb181610d88565b610eba84610d9a565b81016020851015610ec9578190505b610edd610ed585610d9a565b830182610e7d565b50505b505050565b5f82821c905092915050565b5f610f005f1984600802610ee5565b1980831691505092915050565b5f610f188383610ef1565b9150826002028217905092915050565b610f3182610a2b565b67ffffffffffffffff811115610f4a57610f496107ea565b5b610f548254610d58565b610f5f828285610e9f565b5f60209050601f831160018114610f90575f8415610f7e578287015190505b610f888582610f0d565b865550610fef565b601f198416610f9e86610d88565b5f5b82811015610fc557848901518255600182019150602085019450602081019050610fa0565b86831015610fe25784890151610fde601f891682610ef1565b8355505b6001600288020188555050505b505050505050565b7f4e487b71000000000000000000000000000000000000000000000000000000005f52601160045260245ffd5b5f61102e8261090e565b91507fffffffffffffffffffffffffffffffffffffffffffffffffffffffffffffffff82036110605761105f610ff7565b5b600182019050919050565b7f4576656e7420646f6573206e6f742045786973740000000000000000000000005f82015250565b5f61109f601483610a35565b91506110aa8261106b565b602082019050919050565b5f6020820190508181035f8301526110cc81611093565b9050919050565b7f4576656e742068617320616c6c7265616479206f6363757265640000000000005f82015250565b5f611107601a83610a35565b9150611112826110d3565b602082019050919050565b5f6020820190508181035f830152611134816110fb565b9050919050565b5f6111458261090e565b91506111508361090e565b925082820261115e8161090e565b9150828204841483151761117557611174610ff7565b5b5092915050565b7f4574686572206973206e6f7420656e6f696768000000000000000000000000005f82015250565b5f6111b0601383610a35565b91506111bb8261117c565b602082019050919050565b5f6020820190508181035f8301526111dd816111a4565b9050919050565b7f4e6f7420656e6f756768207469636b65747300000000000000000000000000005f82015250565b5f611218601283610a35565b9150611223826111e4565b602082019050919050565b5f6020820190508181035f8301526112458161120c565b9050919050565b5f6112568261090e565b91506112618361090e565b925082820390508181111561127957611278610ff7565b5b92915050565b5f6112898261090e565b91506112948361090e565b92508282019050808211156112ac576112ab610ff7565b5b92915050565b7f596f7520646f206e6f74206861766520656e6f756768207469636b65747320745f8201527f6f207472616e7366657200000000000000000000000000000000000000000000602082015250565b5f61130c602a83610a35565b9150611317826112b2565b604082019050919050565b5f6020820190508181035f83015261133981611300565b905091905056fea264697066735822122075b9205e4489dfa82d6c901dc2735fd5444d9479f74901381eb06744c33d83b664736f6c634300081e0033",
					"opcodes": "PUSH1 0x80 PUSH1 0x40 MSTORE CALLVALUE DUP1 ISZERO PUSH1 0xE JUMPI PUSH0 PUSH0 REVERT JUMPDEST POP PUSH2 0x1376 DUP1 PUSH2 0x1C PUSH0 CODECOPY PUSH0 RETURN INVALID PUSH1 0x80 PUSH1 0x40 MSTORE PUSH1 0x4 CALLDATASIZE LT PUSH2 0x54 JUMPI PUSH0 CALLDATALOAD PUSH1 0xE0 SHR DUP1 PUSH4 0x374AB0B EQ PUSH2 0x58 JUMPI DUP1 PUSH4 0xB791430 EQ PUSH2 0x80 JUMPI DUP1 PUSH4 0x1E96917D EQ PUSH2 0xC1 JUMPI DUP1 PUSH4 0x298EC208 EQ PUSH2 0xEB JUMPI DUP1 PUSH4 0x3D23EED9 EQ PUSH2 0x107 JUMPI DUP1 PUSH4 0xDAE7A13C EQ PUSH2 0x12F JUMPI JUMPDEST PUSH0 PUSH0 REVERT JUMPDEST CALLVALUE DUP1 ISZERO PUSH2 0x63 JUMPI PUSH0 PUSH0 REVERT JUMPDEST POP PUSH2 0x7E PUSH1 0x4 DUP1 CALLDATASIZE SUB DUP2 ADD SWAP1 PUSH2 0x79 SWAP2 SWAP1 PUSH2 0x941 JUMP JUMPDEST PUSH2 0x16B JUMP JUMPDEST STOP JUMPDEST CALLVALUE DUP1 ISZERO PUSH2 0x8B JUMPI PUSH0 PUSH0 REVERT JUMPDEST POP PUSH2 0xA6 PUSH1 0x4 DUP1 CALLDATASIZE SUB DUP2 ADD SWAP1 PUSH2 0xA1 SWAP2 SWAP1 PUSH2 0x9C1 JUMP JUMPDEST PUSH2 0x2E6 JUMP JUMPDEST PUSH1 0x40 MLOAD PUSH2 0xB8 SWAP7 SWAP6 SWAP5 SWAP4 SWAP3 SWAP2 SWAP1 PUSH2 0xA9A JUMP JUMPDEST PUSH1 0x40 MLOAD DUP1 SWAP2 SUB SWAP1 RETURN JUMPDEST CALLVALUE DUP1 ISZERO PUSH2 0xCC JUMPI PUSH0 PUSH0 REVERT JUMPDEST POP PUSH2 0xD5 PUSH2 0x3C2 JUMP JUMPDEST PUSH1 0x40 MLOAD PUSH2 0xE2 SWAP2 SWAP1 PUSH2 0xB00 JUMP JUMPDEST PUSH1 0x40 MLOAD DUP1 SWAP2 SUB SWAP1 RETURN JUMPDEST PUSH2 0x105 PUSH1 0x4 DUP1 CALLDATASIZE SUB DUP2 ADD SWAP1 PUSH2 0x100 SWAP2 SWAP1 PUSH2 0xB19 JUMP JUMPDEST PUSH2 0x3C8 JUMP JUMPDEST STOP JUMPDEST CALLVALUE DUP1 ISZERO PUSH2 0x112 JUMPI PUSH0 PUSH0 REVERT JUMPDEST POP PUSH2 0x12D PUSH1 0x4 DUP1 CALLDATASIZE SUB DUP2 ADD SWAP1 PUSH2 0x128 SWAP2 SWAP1 PUSH2 0xB81 JUMP JUMPDEST PUSH2 0x59F JUMP JUMPDEST STOP JUMPDEST CALLVALUE DUP1 ISZERO PUSH2 0x13A JUMPI PUSH0 PUSH0 REVERT JUMPDEST POP PUSH2 0x155 PUSH1 0x4 DUP1 CALLDATASIZE SUB DUP2 ADD SWAP1 PUSH2 0x150 SWAP2 SWAP1 PUSH2 0xBD1 JUMP JUMPDEST PUSH2 0x7A1 JUMP JUMPDEST PUSH1 0x40 MLOAD PUSH2 0x162 SWAP2 SWAP1 PUSH2 0xB00 JUMP JUMPDEST PUSH1 0x40 MLOAD DUP1 SWAP2 SUB SWAP1 RETURN JUMPDEST TIMESTAMP DUP4 GT PUSH2 0x1AD JUMPI PUSH1 0x40 MLOAD PUSH32 0x8C379A000000000000000000000000000000000000000000000000000000000 DUP2 MSTORE PUSH1 0x4 ADD PUSH2 0x1A4 SWAP1 PUSH2 0xC7F JUMP JUMPDEST PUSH1 0x40 MLOAD DUP1 SWAP2 SUB SWAP1 REVERT JUMPDEST PUSH0 DUP2 GT PUSH2 0x1EF JUMPI PUSH1 0x40 MLOAD PUSH32 0x8C379A000000000000000000000000000000000000000000000000000000000 DUP2 MSTORE PUSH1 0x4 ADD PUSH2 0x1E6 SWAP1 PUSH2 0xD0D JUMP JUMPDEST PUSH1 0x40 MLOAD DUP1 SWAP2 SUB SWAP1 REVERT JUMPDEST PUSH1 0x40 MLOAD DUP1 PUSH1 0xC0 ADD PUSH1 0x40 MSTORE DUP1 CALLER PUSH20 0xFFFFFFFFFFFFFFFFFFFFFFFFFFFFFFFFFFFFFFFF AND DUP2 MSTORE PUSH1 0x20 ADD DUP6 DUP2 MSTORE PUSH1 0x20 ADD DUP5 DUP2 MSTORE PUSH1 0x20 ADD DUP4 DUP2 MSTORE PUSH1 0x20 ADD DUP3 DUP2 MSTORE PUSH1 0x20 ADD DUP3 DUP2 MSTORE POP PUSH0 PUSH0 PUSH1 0x2 SLOAD DUP2 MSTORE PUSH1 0x20 ADD SWAP1 DUP2 MSTORE PUSH1 0x20 ADD PUSH0 KECCAK256 PUSH0 DUP3 ADD MLOAD DUP2 PUSH0 ADD PUSH0 PUSH2 0x100 EXP DUP2 SLOAD DUP2 PUSH20 0xFFFFFFFFFFFFFFFFFFFFFFFFFFFFFFFFFFFFFFFF MUL NOT AND SWAP1 DUP4 PUSH20 0xFFFFFFFFFFFFFFFFFFFFFFFFFFFFFFFFFFFFFFFF AND MUL OR SWAP1 SSTORE POP PUSH1 0x20 DUP3 ADD MLOAD DUP2 PUSH1 0x1 ADD SWAP1 DUP2 PUSH2 0x29D SWAP2 SWAP1 PUSH2 0xF28 JUMP JUMPDEST POP PUSH1 0x40 DUP3 ADD MLOAD DUP2 PUSH1 0x2 ADD SSTORE PUSH1 0x60 DUP3 ADD MLOAD DUP2 PUSH1 0x3 ADD SSTORE PUSH1 0x80 DUP3 ADD MLOAD DUP2 PUSH1 0x4 ADD SSTORE PUSH1 0xA0 DUP3 ADD MLOAD DUP2 PUSH1 0x5 ADD SSTORE SWAP1 POP POP PUSH1 0x2 PUSH0 DUP2 SLOAD DUP1 SWAP3 SWAP2 SWAP1 PUSH2 0x2DB SWAP1 PUSH2 0x1024 JUMP JUMPDEST SWAP2 SWAP1 POP SSTORE POP POP POP POP POP JUMP JUMPDEST PUSH0 PUSH1 0x20 MSTORE DUP1 PUSH0 MSTORE PUSH1 0x40 PUSH0 KECCAK256 PUSH0 SWAP2 POP SWAP1 POP DUP1 PUSH0 ADD PUSH0 SWAP1 SLOAD SWAP1 PUSH2 0x100 EXP SWAP1 DIV PUSH20 0xFFFFFFFFFFFFFFFFFFFFFFFFFFFFFFFFFFFFFFFF AND SWAP1 DUP1 PUSH1 0x1 ADD DUP1 SLOAD PUSH2 0x329 SWAP1 PUSH2 0xD58 JUMP JUMPDEST DUP1 PUSH1 0x1F ADD PUSH1 0x20 DUP1 SWAP2 DIV MUL PUSH1 0x20 ADD PUSH1 0x40 MLOAD SWAP1 DUP2 ADD PUSH1 0x40 MSTORE DUP1 SWAP3 SWAP2 SWAP1 DUP2 DUP2 MSTORE PUSH1 0x20 ADD DUP3 DUP1 SLOAD PUSH2 0x355 SWAP1 PUSH2 0xD58 JUMP JUMPDEST DUP1 ISZERO PUSH2 0x3A0 JUMPI DUP1 PUSH1 0x1F LT PUSH2 0x377 JUMPI PUSH2 0x100 DUP1 DUP4 SLOAD DIV MUL DUP4 MSTORE SWAP2 PUSH1 0x20 ADD SWAP2 PUSH2 0x3A0 JUMP JUMPDEST DUP3 ADD SWAP2 SWAP1 PUSH0 MSTORE PUSH1 0x20 PUSH0 KECCAK256 SWAP1 JUMPDEST DUP2 SLOAD DUP2 MSTORE SWAP1 PUSH1 0x1 ADD SWAP1 PUSH1 0x20 ADD DUP1 DUP4 GT PUSH2 0x383 JUMPI DUP3 SWAP1 SUB PUSH1 0x1F AND DUP3 ADD SWAP2 JUMPDEST POP POP POP POP POP SWAP1 DUP1 PUSH1 0x2 ADD SLOAD SWAP1 DUP1 PUSH1 0x3 ADD SLOAD SWAP1 DUP1 PUSH1 0x4 ADD SLOAD SWAP1 DUP1 PUSH1 0x5 ADD SLOAD SWAP1 POP DUP7 JUMP JUMPDEST PUSH1 0x2 SLOAD DUP2 JUMP JUMPDEST PUSH0 PUSH0 PUSH0 DUP5 DUP2 MSTORE PUSH1 0x20 ADD SWAP1 DUP2 MSTORE PUSH1 0x20 ADD PUSH0 KECCAK256 PUSH1 0x2 ADD SLOAD SUB PUSH2 0x41D JUMPI PUSH1 0x40 MLOAD PUSH32 0x8C379A000000000000000000000000000000000000000000000000000000000 DUP2 MSTORE PUSH1 0x4 ADD PUSH2 0x414 SWAP1 PUSH2 0x10B5 JUMP JUMPDEST PUSH1 0x40 MLOAD DUP1 SWAP2 SUB SWAP1 REVERT JUMPDEST TIMESTAMP PUSH0 PUSH0 DUP5 DUP2 MSTORE PUSH1 0x20 ADD SWAP1 DUP2 MSTORE PUSH1 0x20 ADD PUSH0 KECCAK256 PUSH1 0x2 ADD SLOAD GT PUSH2 0x472 JUMPI PUSH1 0x40 MLOAD PUSH32 0x8C379A000000000000000000000000000000000000000000000000000000000 DUP2 MSTORE PUSH1 0x4 ADD PUSH2 0x469 SWAP1 PUSH2 0x111D JUMP JUMPDEST PUSH1 0x40 MLOAD DUP1 SWAP2 SUB SWAP1 REVERT JUMPDEST PUSH0 PUSH0 PUSH0 DUP5 DUP2 MSTORE PUSH1 0x20 ADD SWAP1 DUP2 MSTORE PUSH1 0x20 ADD PUSH0 KECCAK256 SWAP1 POP DUP2 DUP2 PUSH1 0x3 ADD SLOAD PUSH2 0x495 SWAP2 SWAP1 PUSH2 0x113B JUMP JUMPDEST CALLVALUE LT ISZERO PUSH2 0x4D7 JUMPI PUSH1 0x40 MLOAD PUSH32 0x8C379A000000000000000000000000000000000000000000000000000000000 DUP2 MSTORE PUSH1 0x4 ADD PUSH2 0x4CE SWAP1 PUSH2 0x11C6 JUMP JUMPDEST PUSH1 0x40 MLOAD DUP1 SWAP2 SUB SWAP1 REVERT JUMPDEST DUP2 DUP2 PUSH1 0x5 ADD SLOAD LT ISZERO PUSH2 0x51E JUMPI PUSH1 0x40 MLOAD PUSH32 0x8C379A000000000000000000000000000000000000000000000000000000000 DUP2 MSTORE PUSH1 0x4 ADD PUSH2 0x515 SWAP1 PUSH2 0x122E JUMP JUMPDEST PUSH1 0x40 MLOAD DUP1 SWAP2 SUB SWAP1 REVERT JUMPDEST DUP2 DUP2 PUSH1 0x5 ADD PUSH0 DUP3 DUP3 SLOAD PUSH2 0x531 SWAP2 SWAP1 PUSH2 0x124C JUMP JUMPDEST SWAP3 POP POP DUP2 SWAP1 SSTORE POP DUP2 PUSH1 0x1 PUSH0 CALLER PUSH20 0xFFFFFFFFFFFFFFFFFFFFFFFFFFFFFFFFFFFFFFFF AND PUSH20 0xFFFFFFFFFFFFFFFFFFFFFFFFFFFFFFFFFFFFFFFF AND DUP2 MSTORE PUSH1 0x20 ADD SWAP1 DUP2 MSTORE PUSH1 0x20 ADD PUSH0 KECCAK256 PUSH0 DUP6 DUP2 MSTORE PUSH1 0x20 ADD SWAP1 DUP2 MSTORE PUSH1 0x20 ADD PUSH0 KECCAK256 PUSH0 DUP3 DUP3 SLOAD PUSH2 0x593 SWAP2 SWAP1 PUSH2 0x127F JUMP JUMPDEST SWAP3 POP POP DUP2 SWAP1 SSTORE POP POP POP POP JUMP JUMPDEST PUSH0 PUSH0 PUSH0 DUP6 DUP2 MSTORE PUSH1 0x20 ADD SWAP1 DUP2 MSTORE PUSH1 0x20 ADD PUSH0 KECCAK256 PUSH1 0x2 ADD SLOAD SUB PUSH2 0x5F4 JUMPI PUSH1 0x40 MLOAD PUSH32 0x8C379A000000000000000000000000000000000000000000000000000000000 DUP2 MSTORE PUSH1 0x4 ADD PUSH2 0x5EB SWAP1 PUSH2 0x10B5 JUMP JUMPDEST PUSH1 0x40 MLOAD DUP1 SWAP2 SUB SWAP1 REVERT JUMPDEST TIMESTAMP PUSH0 PUSH0 DUP6 DUP2 MSTORE PUSH1 0x20 ADD SWAP1 DUP2 MSTORE PUSH1 0x20 ADD PUSH0 KECCAK256 PUSH1 0x2 ADD SLOAD GT PUSH2 0x649 JUMPI PUSH1 0x40 MLOAD PUSH32 0x8C379A000000000000000000000000000000000000000000000000000000000 DUP2 MSTORE PUSH1 0x4 ADD PUSH2 0x640 SWAP1 PUSH2 0x111D JUMP JUMPDEST PUSH1 0x40 MLOAD DUP1 SWAP2 SUB SWAP1 REVERT JUMPDEST DUP2 PUSH1 0x1 PUSH0 CALLER PUSH20 0xFFFFFFFFFFFFFFFFFFFFFFFFFFFFFFFFFFFFFFFF AND PUSH20 0xFFFFFFFFFFFFFFFFFFFFFFFFFFFFFFFFFFFFFFFF AND DUP2 MSTORE PUSH1 0x20 ADD SWAP1 DUP2 MSTORE PUSH1 0x20 ADD PUSH0 KECCAK256 PUSH0 DUP6 DUP2 MSTORE PUSH1 0x20 ADD SWAP1 DUP2 MSTORE PUSH1 0x20 ADD PUSH0 KECCAK256 SLOAD LT ISZERO PUSH2 0x6D8 JUMPI PUSH1 0x40 MLOAD PUSH32 0x8C379A000000000000000000000000000000000000000000000000000000000 DUP2 MSTORE PUSH1 0x4 ADD PUSH2 0x6CF SWAP1 PUSH2 0x1322 JUMP JUMPDEST PUSH1 0x40 MLOAD DUP1 SWAP2 SUB SWAP1 REVERT JUMPDEST DUP2 PUSH1 0x1 PUSH0 CALLER PUSH20 0xFFFFFFFFFFFFFFFFFFFFFFFFFFFFFFFFFFFFFFFF AND PUSH20 0xFFFFFFFFFFFFFFFFFFFFFFFFFFFFFFFFFFFFFFFF AND DUP2 MSTORE PUSH1 0x20 ADD SWAP1 DUP2 MSTORE PUSH1 0x20 ADD PUSH0 KECCAK256 PUSH0 DUP6 DUP2 MSTORE PUSH1 0x20 ADD SWAP1 DUP2 MSTORE PUSH1 0x20 ADD PUSH0 KECCAK256 PUSH0 DUP3 DUP3 SLOAD PUSH2 0x733 SWAP2 SWAP1 PUSH2 0x124C JUMP JUMPDEST SWAP3 POP POP DUP2 SWAP1 SSTORE POP DUP2 PUSH1 0x1 PUSH0 DUP4 PUSH20 0xFFFFFFFFFFFFFFFFFFFFFFFFFFFFFFFFFFFFFFFF AND PUSH20 0xFFFFFFFFFFFFFFFFFFFFFFFFFFFFFFFFFFFFFFFF AND DUP2 MSTORE PUSH1 0x20 ADD SWAP1 DUP2 MSTORE PUSH1 0x20 ADD PUSH0 KECCAK256 PUSH0 DUP6 DUP2 MSTORE PUSH1 0x20 ADD SWAP1 DUP2 MSTORE PUSH1 0x20 ADD PUSH0 KECCAK256 PUSH0 DUP3 DUP3 SLOAD PUSH2 0x795 SWAP2 SWAP1 PUSH2 0x127F JUMP JUMPDEST SWAP3 POP POP DUP2 SWAP1 SSTORE POP POP POP POP JUMP JUMPDEST PUSH1 0x1 PUSH1 0x20 MSTORE DUP2 PUSH0 MSTORE PUSH1 0x40 PUSH0 KECCAK256 PUSH1 0x20 MSTORE DUP1 PUSH0 MSTORE PUSH1 0x40 PUSH0 KECCAK256 PUSH0 SWAP2 POP SWAP2 POP POP SLOAD DUP2 JUMP JUMPDEST PUSH0 PUSH1 0x40 MLOAD SWAP1 POP SWAP1 JUMP JUMPDEST PUSH0 PUSH0 REVERT JUMPDEST PUSH0 PUSH0 REVERT JUMPDEST PUSH0 PUSH0 REVERT JUMPDEST PUSH0 PUSH0 REVERT JUMPDEST PUSH0 PUSH1 0x1F NOT PUSH1 0x1F DUP4 ADD AND SWAP1 POP SWAP2 SWAP1 POP JUMP JUMPDEST PUSH32 0x4E487B7100000000000000000000000000000000000000000000000000000000 PUSH0 MSTORE PUSH1 0x41 PUSH1 0x4 MSTORE PUSH1 0x24 PUSH0 REVERT JUMPDEST PUSH2 0x820 DUP3 PUSH2 0x7DA JUMP JUMPDEST DUP2 ADD DUP2 DUP2 LT PUSH8 0xFFFFFFFFFFFFFFFF DUP3 GT OR ISZERO PUSH2 0x83F JUMPI PUSH2 0x83E PUSH2 0x7EA JUMP JUMPDEST JUMPDEST DUP1 PUSH1 0x40 MSTORE POP POP POP JUMP JUMPDEST PUSH0 PUSH2 0x851 PUSH2 0x7C1 JUMP JUMPDEST SWAP1 POP PUSH2 0x85D DUP3 DUP3 PUSH2 0x817 JUMP JUMPDEST SWAP2 SWAP1 POP JUMP JUMPDEST PUSH0 PUSH8 0xFFFFFFFFFFFFFFFF DUP3 GT ISZERO PUSH2 0x87C JUMPI PUSH2 0x87B PUSH2 0x7EA JUMP JUMPDEST JUMPDEST PUSH2 0x885 DUP3 PUSH2 0x7DA JUMP JUMPDEST SWAP1 POP PUSH1 0x20 DUP2 ADD SWAP1 POP SWAP2 SWAP1 POP JUMP JUMPDEST DUP3 DUP2 DUP4 CALLDATACOPY PUSH0 DUP4 DUP4 ADD MSTORE POP POP POP JUMP JUMPDEST PUSH0 PUSH2 0x8B2 PUSH2 0x8AD DUP5 PUSH2 0x862 JUMP JUMPDEST PUSH2 0x848 JUMP JUMPDEST SWAP1 POP DUP3 DUP2 MSTORE PUSH1 0x20 DUP2 ADD DUP5 DUP5 DUP5 ADD GT ISZERO PUSH2 0x8CE JUMPI PUSH2 0x8CD PUSH2 0x7D6 JUMP JUMPDEST JUMPDEST PUSH2 0x8D9 DUP5 DUP3 DUP6 PUSH2 0x892 JUMP JUMPDEST POP SWAP4 SWAP3 POP POP POP JUMP JUMPDEST PUSH0 DUP3 PUSH1 0x1F DUP4 ADD SLT PUSH2 0x8F5 JUMPI PUSH2 0x8F4 PUSH2 0x7D2 JUMP JUMPDEST JUMPDEST DUP2 CALLDATALOAD PUSH2 0x905 DUP5 DUP3 PUSH1 0x20 DUP7 ADD PUSH2 0x8A0 JUMP JUMPDEST SWAP2 POP POP SWAP3 SWAP2 POP POP JUMP JUMPDEST PUSH0 DUP2 SWAP1 POP SWAP2 SWAP1 POP JUMP JUMPDEST PUSH2 0x920 DUP2 PUSH2 0x90E JUMP JUMPDEST DUP2 EQ PUSH2 0x92A JUMPI PUSH0 PUSH0 REVERT JUMPDEST POP JUMP JUMPDEST PUSH0 DUP2 CALLDATALOAD SWAP1 POP PUSH2 0x93B DUP2 PUSH2 0x917 JUMP JUMPDEST SWAP3 SWAP2 POP POP JUMP JUMPDEST PUSH0 PUSH0 PUSH0 PUSH0 PUSH1 0x80 DUP6 DUP8 SUB SLT ISZERO PUSH2 0x959 JUMPI PUSH2 0x958 PUSH2 0x7CA JUMP JUMPDEST JUMPDEST PUSH0 DUP6 ADD CALLDATALOAD PUSH8 0xFFFFFFFFFFFFFFFF DUP2 GT ISZERO PUSH2 0x976 JUMPI PUSH2 0x975 PUSH2 0x7CE JUMP JUMPDEST JUMPDEST PUSH2 0x982 DUP8 DUP3 DUP9 ADD PUSH2 0x8E1 JUMP JUMPDEST SWAP5 POP POP PUSH1 0x20 PUSH2 0x993 DUP8 DUP3 DUP9 ADD PUSH2 0x92D JUMP JUMPDEST SWAP4 POP POP PUSH1 0x40 PUSH2 0x9A4 DUP8 DUP3 DUP9 ADD PUSH2 0x92D JUMP JUMPDEST SWAP3 POP POP PUSH1 0x60 PUSH2 0x9B5 DUP8 DUP3 DUP9 ADD PUSH2 0x92D JUMP JUMPDEST SWAP2 POP POP SWAP3 SWAP6 SWAP2 SWAP5 POP SWAP3 POP JUMP JUMPDEST PUSH0 PUSH1 0x20 DUP3 DUP5 SUB SLT ISZERO PUSH2 0x9D6 JUMPI PUSH2 0x9D5 PUSH2 0x7CA JUMP JUMPDEST JUMPDEST PUSH0 PUSH2 0x9E3 DUP5 DUP3 DUP6 ADD PUSH2 0x92D JUMP JUMPDEST SWAP2 POP POP SWAP3 SWAP2 POP POP JUMP JUMPDEST PUSH0 PUSH20 0xFFFFFFFFFFFFFFFFFFFFFFFFFFFFFFFFFFFFFFFF DUP3 AND SWAP1 POP SWAP2 SWAP1 POP JUMP JUMPDEST PUSH0 PUSH2 0xA15 DUP3 PUSH2 0x9EC JUMP JUMPDEST SWAP1 POP SWAP2 SWAP1 POP JUMP JUMPDEST PUSH2 0xA25 DUP2 PUSH2 0xA0B JUMP JUMPDEST DUP3 MSTORE POP POP JUMP JUMPDEST PUSH0 DUP2 MLOAD SWAP1 POP SWAP2 SWAP1 POP JUMP JUMPDEST PUSH0 DUP3 DUP3 MSTORE PUSH1 0x20 DUP3 ADD SWAP1 POP SWAP3 SWAP2 POP POP JUMP JUMPDEST DUP3 DUP2 DUP4 MCOPY PUSH0 DUP4 DUP4 ADD MSTORE POP POP POP JUMP JUMPDEST PUSH0 PUSH2 0xA5D DUP3 PUSH2 0xA2B JUMP JUMPDEST PUSH2 0xA67 DUP2 DUP6 PUSH2 0xA35 JUMP JUMPDEST SWAP4 POP PUSH2 0xA77 DUP2 DUP6 PUSH1 0x20 DUP7 ADD PUSH2 0xA45 JUMP JUMPDEST PUSH2 0xA80 DUP2 PUSH2 0x7DA JUMP JUMPDEST DUP5 ADD SWAP2 POP POP SWAP3 SWAP2 POP POP JUMP JUMPDEST PUSH2 0xA94 DUP2 PUSH2 0x90E JUMP JUMPDEST DUP3 MSTORE POP POP JUMP JUMPDEST PUSH0 PUSH1 0xC0 DUP3 ADD SWAP1 POP PUSH2 0xAAD PUSH0 DUP4 ADD DUP10 PUSH2 0xA1C JUMP JUMPDEST DUP2 DUP2 SUB PUSH1 0x20 DUP4 ADD MSTORE PUSH2 0xABF DUP2 DUP9 PUSH2 0xA53 JUMP JUMPDEST SWAP1 POP PUSH2 0xACE PUSH1 0x40 DUP4 ADD DUP8 PUSH2 0xA8B JUMP JUMPDEST PUSH2 0xADB PUSH1 0x60 DUP4 ADD DUP7 PUSH2 0xA8B JUMP JUMPDEST PUSH2 0xAE8 PUSH1 0x80 DUP4 ADD DUP6 PUSH2 0xA8B JUMP JUMPDEST PUSH2 0xAF5 PUSH1 0xA0 DUP4 ADD DUP5 PUSH2 0xA8B JUMP JUMPDEST SWAP8 SWAP7 POP POP POP POP POP POP POP JUMP JUMPDEST PUSH0 PUSH1 0x20 DUP3 ADD SWAP1 POP PUSH2 0xB13 PUSH0 DUP4 ADD DUP5 PUSH2 0xA8B JUMP JUMPDEST SWAP3 SWAP2 POP POP JUMP JUMPDEST PUSH0 PUSH0 PUSH1 0x40 DUP4 DUP6 SUB SLT ISZERO PUSH2 0xB2F JUMPI PUSH2 0xB2E PUSH2 0x7CA JUMP JUMPDEST JUMPDEST PUSH0 PUSH2 0xB3C DUP6 DUP3 DUP7 ADD PUSH2 0x92D JUMP JUMPDEST SWAP3 POP POP PUSH1 0x20 PUSH2 0xB4D DUP6 DUP3 DUP7 ADD PUSH2 0x92D JUMP JUMPDEST SWAP2 POP POP SWAP3 POP SWAP3 SWAP1 POP JUMP JUMPDEST PUSH2 0xB60 DUP2 PUSH2 0xA0B JUMP JUMPDEST DUP2 EQ PUSH2 0xB6A JUMPI PUSH0 PUSH0 REVERT JUMPDEST POP JUMP JUMPDEST PUSH0 DUP2 CALLDATALOAD SWAP1 POP PUSH2 0xB7B DUP2 PUSH2 0xB57 JUMP JUMPDEST SWAP3 SWAP2 POP POP JUMP JUMPDEST PUSH0 PUSH0 PUSH0 PUSH1 0x60 DUP5 DUP7 SUB SLT ISZERO PUSH2 0xB98 JUMPI PUSH2 0xB97 PUSH2 0x7CA JUMP JUMPDEST JUMPDEST PUSH0 PUSH2 0xBA5 DUP7 DUP3 DUP8 ADD PUSH2 0x92D JUMP JUMPDEST SWAP4 POP POP PUSH1 0x20 PUSH2 0xBB6 DUP7 DUP3 DUP8 ADD PUSH2 0x92D JUMP JUMPDEST SWAP3 POP POP PUSH1 0x40 PUSH2 0xBC7 DUP7 DUP3 DUP8 ADD PUSH2 0xB6D JUMP JUMPDEST SWAP2 POP POP SWAP3 POP SWAP3 POP SWAP3 JUMP JUMPDEST PUSH0 PUSH0 PUSH1 0x40 DUP4 DUP6 SUB SLT ISZERO PUSH2 0xBE7 JUMPI PUSH2 0xBE6 PUSH2 0x7CA JUMP JUMPDEST JUMPDEST PUSH0 PUSH2 0xBF4 DUP6 DUP3 DUP7 ADD PUSH2 0xB6D JUMP JUMPDEST SWAP3 POP POP PUSH1 0x20 PUSH2 0xC05 DUP6 DUP3 DUP7 ADD PUSH2 0x92D JUMP JUMPDEST SWAP2 POP POP SWAP3 POP SWAP3 SWAP1 POP JUMP JUMPDEST PUSH32 0x596F752063616E206F7267616E697A65204576656E747320666F722066757475 PUSH0 DUP3 ADD MSTORE PUSH32 0x7265206461746573000000000000000000000000000000000000000000000000 PUSH1 0x20 DUP3 ADD MSTORE POP JUMP JUMPDEST PUSH0 PUSH2 0xC69 PUSH1 0x28 DUP4 PUSH2 0xA35 JUMP JUMPDEST SWAP2 POP PUSH2 0xC74 DUP3 PUSH2 0xC0F JUMP JUMPDEST PUSH1 0x40 DUP3 ADD SWAP1 POP SWAP2 SWAP1 POP JUMP JUMPDEST PUSH0 PUSH1 0x20 DUP3 ADD SWAP1 POP DUP2 DUP2 SUB PUSH0 DUP4 ADD MSTORE PUSH2 0xC96 DUP2 PUSH2 0xC5D JUMP JUMPDEST SWAP1 POP SWAP2 SWAP1 POP JUMP JUMPDEST PUSH32 0x796F752063616E206F7267616E697365206576656E74206F6E20746865206966 PUSH0 DUP3 ADD MSTORE PUSH32 0x20796F7520637265617465207469636B657473206D6F7265207468616E203000 PUSH1 0x20 DUP3 ADD MSTORE POP JUMP JUMPDEST PUSH0 PUSH2 0xCF7 PUSH1 0x3F DUP4 PUSH2 0xA35 JUMP JUMPDEST SWAP2 POP PUSH2 0xD02 DUP3 PUSH2 0xC9D JUMP JUMPDEST PUSH1 0x40 DUP3 ADD SWAP1 POP SWAP2 SWAP1 POP JUMP JUMPDEST PUSH0 PUSH1 0x20 DUP3 ADD SWAP1 POP DUP2 DUP2 SUB PUSH0 DUP4 ADD MSTORE PUSH2 0xD24 DUP2 PUSH2 0xCEB JUMP JUMPDEST SWAP1 POP SWAP2 SWAP1 POP JUMP JUMPDEST PUSH32 0x4E487B7100000000000000000000000000000000000000000000000000000000 PUSH0 MSTORE PUSH1 0x22 PUSH1 0x4 MSTORE PUSH1 0x24 PUSH0 REVERT JUMPDEST PUSH0 PUSH1 0x2 DUP3 DIV SWAP1 POP PUSH1 0x1 DUP3 AND DUP1 PUSH2 0xD6F JUMPI PUSH1 0x7F DUP3 AND SWAP2 POP JUMPDEST PUSH1 0x20 DUP3 LT DUP2 SUB PUSH2 0xD82 JUMPI PUSH2 0xD81 PUSH2 0xD2B JUMP JUMPDEST JUMPDEST POP SWAP2 SWAP1 POP JUMP JUMPDEST PUSH0 DUP2 SWAP1 POP DUP2 PUSH0 MSTORE PUSH1 0x20 PUSH0 KECCAK256 SWAP1 POP SWAP2 SWAP1 POP JUMP JUMPDEST PUSH0 PUSH1 0x20 PUSH1 0x1F DUP4 ADD DIV SWAP1 POP SWAP2 SWAP1 POP JUMP JUMPDEST PUSH0 DUP3 DUP3 SHL SWAP1 POP SWAP3 SWAP2 POP POP JUMP JUMPDEST PUSH0 PUSH1 0x8 DUP4 MUL PUSH2 0xDE4 PUSH32 0xFFFFFFFFFFFFFFFFFFFFFFFFFFFFFFFFFFFFFFFFFFFFFFFFFFFFFFFFFFFFFFFF DUP3 PUSH2 0xDA9 JUMP JUMPDEST PUSH2 0xDEE DUP7 DUP4 PUSH2 0xDA9 JUMP JUMPDEST SWAP6 POP DUP1 NOT DUP5 AND SWAP4 POP DUP1 DUP7 AND DUP5 OR SWAP3 POP POP POP SWAP4 SWAP3 POP POP POP JUMP JUMPDEST PUSH0 DUP2 SWAP1 POP SWAP2 SWAP1 POP JUMP JUMPDEST PUSH0 PUSH2 0xE29 PUSH2 0xE24 PUSH2 0xE1F DUP5 PUSH2 0x90E JUMP JUMPDEST PUSH2 0xE06 JUMP JUMPDEST PUSH2 0x90E JUMP JUMPDEST SWAP1 POP SWAP2 SWAP1 POP JUMP JUMPDEST PUSH0 DUP2 SWAP1 POP SWAP2 SWAP1 POP JUMP JUMPDEST PUSH2 0xE42 DUP4 PUSH2 0xE0F JUMP JUMPDEST PUSH2 0xE56 PUSH2 0xE4E DUP3 PUSH2 0xE30 JUMP JUMPDEST DUP5 DUP5 SLOAD PUSH2 0xDB5 JUMP JUMPDEST DUP3 SSTORE POP POP POP POP JUMP JUMPDEST PUSH0 PUSH0 SWAP1 POP SWAP1 JUMP JUMPDEST PUSH2 0xE6D PUSH2 0xE5E JUMP JUMPDEST PUSH2 0xE78 DUP2 DUP5 DUP5 PUSH2 0xE39 JUMP JUMPDEST POP POP POP JUMP JUMPDEST JUMPDEST DUP2 DUP2 LT ISZERO PUSH2 0xE9B JUMPI PUSH2 0xE90 PUSH0 DUP3 PUSH2 0xE65 JUMP JUMPDEST PUSH1 0x1 DUP2 ADD SWAP1 POP PUSH2 0xE7E JUMP JUMPDEST POP POP JUMP JUMPDEST PUSH1 0x1F DUP3 GT ISZERO PUSH2 0xEE0 JUMPI PUSH2 0xEB1 DUP2 PUSH2 0xD88 JUMP JUMPDEST PUSH2 0xEBA DUP5 PUSH2 0xD9A JUMP JUMPDEST DUP2 ADD PUSH1 0x20 DUP6 LT ISZERO PUSH2 0xEC9 JUMPI DUP2 SWAP1 POP JUMPDEST PUSH2 0xEDD PUSH2 0xED5 DUP6 PUSH2 0xD9A JUMP JUMPDEST DUP4 ADD DUP3 PUSH2 0xE7D JUMP JUMPDEST POP POP JUMPDEST POP POP POP JUMP JUMPDEST PUSH0 DUP3 DUP3 SHR SWAP1 POP SWAP3 SWAP2 POP POP JUMP JUMPDEST PUSH0 PUSH2 0xF00 PUSH0 NOT DUP5 PUSH1 0x8 MUL PUSH2 0xEE5 JUMP JUMPDEST NOT DUP1 DUP4 AND SWAP2 POP POP SWAP3 SWAP2 POP POP JUMP JUMPDEST PUSH0 PUSH2 0xF18 DUP4 DUP4 PUSH2 0xEF1 JUMP JUMPDEST SWAP2 POP DUP3 PUSH1 0x2 MUL DUP3 OR SWAP1 POP SWAP3 SWAP2 POP POP JUMP JUMPDEST PUSH2 0xF31 DUP3 PUSH2 0xA2B JUMP JUMPDEST PUSH8 0xFFFFFFFFFFFFFFFF DUP2 GT ISZERO PUSH2 0xF4A JUMPI PUSH2 0xF49 PUSH2 0x7EA JUMP JUMPDEST JUMPDEST PUSH2 0xF54 DUP3 SLOAD PUSH2 0xD58 JUMP JUMPDEST PUSH2 0xF5F DUP3 DUP3 DUP6 PUSH2 0xE9F JUMP JUMPDEST PUSH0 PUSH1 0x20 SWAP1 POP PUSH1 0x1F DUP4 GT PUSH1 0x1 DUP2 EQ PUSH2 0xF90 JUMPI PUSH0 DUP5 ISZERO PUSH2 0xF7E JUMPI DUP3 DUP8 ADD MLOAD SWAP1 POP JUMPDEST PUSH2 0xF88 DUP6 DUP3 PUSH2 0xF0D JUMP JUMPDEST DUP7 SSTORE POP PUSH2 0xFEF JUMP JUMPDEST PUSH1 0x1F NOT DUP5 AND PUSH2 0xF9E DUP7 PUSH2 0xD88 JUMP JUMPDEST PUSH0 JUMPDEST DUP3 DUP2 LT ISZERO PUSH2 0xFC5 JUMPI DUP5 DUP10 ADD MLOAD DUP3 SSTORE PUSH1 0x1 DUP3 ADD SWAP2 POP PUSH1 0x20 DUP6 ADD SWAP5 POP PUSH1 0x20 DUP2 ADD SWAP1 POP PUSH2 0xFA0 JUMP JUMPDEST DUP7 DUP4 LT ISZERO PUSH2 0xFE2 JUMPI DUP5 DUP10 ADD MLOAD PUSH2 0xFDE PUSH1 0x1F DUP10 AND DUP3 PUSH2 0xEF1 JUMP JUMPDEST DUP4 SSTORE POP JUMPDEST PUSH1 0x1 PUSH1 0x2 DUP9 MUL ADD DUP9 SSTORE POP POP POP JUMPDEST POP POP POP POP POP POP JUMP JUMPDEST PUSH32 0x4E487B7100000000000000000000000000000000000000000000000000000000 PUSH0 MSTORE PUSH1 0x11 PUSH1 0x4 MSTORE PUSH1 0x24 PUSH0 REVERT JUMPDEST PUSH0 PUSH2 0x102E DUP3 PUSH2 0x90E JUMP JUMPDEST SWAP2 POP PUSH32 0xFFFFFFFFFFFFFFFFFFFFFFFFFFFFFFFFFFFFFFFFFFFFFFFFFFFFFFFFFFFFFFFF DUP3 SUB PUSH2 0x1060 JUMPI PUSH2 0x105F PUSH2 0xFF7 JUMP JUMPDEST JUMPDEST PUSH1 0x1 DUP3 ADD SWAP1 POP SWAP2 SWAP1 POP JUMP JUMPDEST PUSH32 0x4576656E7420646F6573206E6F74204578697374000000000000000000000000 PUSH0 DUP3 ADD MSTORE POP JUMP JUMPDEST PUSH0 PUSH2 0x109F PUSH1 0x14 DUP4 PUSH2 0xA35 JUMP JUMPDEST SWAP2 POP PUSH2 0x10AA DUP3 PUSH2 0x106B JUMP JUMPDEST PUSH1 0x20 DUP3 ADD SWAP1 POP SWAP2 SWAP1 POP JUMP JUMPDEST PUSH0 PUSH1 0x20 DUP3 ADD SWAP1 POP DUP2 DUP2 SUB PUSH0 DUP4 ADD MSTORE PUSH2 0x10CC DUP2 PUSH2 0x1093 JUMP JUMPDEST SWAP1 POP SWAP2 SWAP1 POP JUMP JUMPDEST PUSH32 0x4576656E742068617320616C6C7265616479206F636375726564000000000000 PUSH0 DUP3 ADD MSTORE POP JUMP JUMPDEST PUSH0 PUSH2 0x1107 PUSH1 0x1A DUP4 PUSH2 0xA35 JUMP JUMPDEST SWAP2 POP PUSH2 0x1112 DUP3 PUSH2 0x10D3 JUMP JUMPDEST PUSH1 0x20 DUP3 ADD SWAP1 POP SWAP2 SWAP1 POP JUMP JUMPDEST PUSH0 PUSH1 0x20 DUP3 ADD SWAP1 POP DUP2 DUP2 SUB PUSH0 DUP4 ADD MSTORE PUSH2 0x1134 DUP2 PUSH2 0x10FB JUMP JUMPDEST SWAP1 POP SWAP2 SWAP1 POP JUMP JUMPDEST PUSH0 PUSH2 0x1145 DUP3 PUSH2 0x90E JUMP JUMPDEST SWAP2 POP PUSH2 0x1150 DUP4 PUSH2 0x90E JUMP JUMPDEST SWAP3 POP DUP3 DUP3 MUL PUSH2 0x115E DUP2 PUSH2 0x90E JUMP JUMPDEST SWAP2 POP DUP3 DUP3 DIV DUP5 EQ DUP4 ISZERO OR PUSH2 0x1175 JUMPI PUSH2 0x1174 PUSH2 0xFF7 JUMP JUMPDEST JUMPDEST POP SWAP3 SWAP2 POP POP JUMP JUMPDEST PUSH32 0x4574686572206973206E6F7420656E6F69676800000000000000000000000000 PUSH0 DUP3 ADD MSTORE POP JUMP JUMPDEST PUSH0 PUSH2 0x11B0 PUSH1 0x13 DUP4 PUSH2 0xA35 JUMP JUMPDEST SWAP2 POP PUSH2 0x11BB DUP3 PUSH2 0x117C JUMP JUMPDEST PUSH1 0x20 DUP3 ADD SWAP1 POP SWAP2 SWAP1 POP JUMP JUMPDEST PUSH0 PUSH1 0x20 DUP3 ADD SWAP1 POP DUP2 DUP2 SUB PUSH0 DUP4 ADD MSTORE PUSH2 0x11DD DUP2 PUSH2 0x11A4 JUMP JUMPDEST SWAP1 POP SWAP2 SWAP1 POP JUMP JUMPDEST PUSH32 0x4E6F7420656E6F756768207469636B6574730000000000000000000000000000 PUSH0 DUP3 ADD MSTORE POP JUMP JUMPDEST PUSH0 PUSH2 0x1218 PUSH1 0x12 DUP4 PUSH2 0xA35 JUMP JUMPDEST SWAP2 POP PUSH2 0x1223 DUP3 PUSH2 0x11E4 JUMP JUMPDEST PUSH1 0x20 DUP3 ADD SWAP1 POP SWAP2 SWAP1 POP JUMP JUMPDEST PUSH0 PUSH1 0x20 DUP3 ADD SWAP1 POP DUP2 DUP2 SUB PUSH0 DUP4 ADD MSTORE PUSH2 0x1245 DUP2 PUSH2 0x120C JUMP JUMPDEST SWAP1 POP SWAP2 SWAP1 POP JUMP JUMPDEST PUSH0 PUSH2 0x1256 DUP3 PUSH2 0x90E JUMP JUMPDEST SWAP2 POP PUSH2 0x1261 DUP4 PUSH2 0x90E JUMP JUMPDEST SWAP3 POP DUP3 DUP3 SUB SWAP1 POP DUP2 DUP2 GT ISZERO PUSH2 0x1279 JUMPI PUSH2 0x1278 PUSH2 0xFF7 JUMP JUMPDEST JUMPDEST SWAP3 SWAP2 POP POP JUMP JUMPDEST PUSH0 PUSH2 0x1289 DUP3 PUSH2 0x90E JUMP JUMPDEST SWAP2 POP PUSH2 0x1294 DUP4 PUSH2 0x90E JUMP JUMPDEST SWAP3 POP DUP3 DUP3 ADD SWAP1 POP DUP1 DUP3 GT ISZERO PUSH2 0x12AC JUMPI PUSH2 0x12AB PUSH2 0xFF7 JUMP JUMPDEST JUMPDEST SWAP3 SWAP2 POP POP JUMP JUMPDEST PUSH32 0x596F7520646F206E6F74206861766520656E6F756768207469636B6574732074 PUSH0 DUP3 ADD MSTORE PUSH32 0x6F207472616E7366657200000000000000000000000000000000000000000000 PUSH1 0x20 DUP3 ADD MSTORE POP JUMP JUMPDEST PUSH0 PUSH2 0x130C PUSH1 0x2A DUP4 PUSH2 0xA35 JUMP JUMPDEST SWAP2 POP PUSH2 0x1317 DUP3 PUSH2 0x12B2 JUMP JUMPDEST PUSH1 0x40 DUP3 ADD SWAP1 POP SWAP2 SWAP1 POP JUMP JUMPDEST PUSH0 PUSH1 0x20 DUP3 ADD SWAP1 POP DUP2 DUP2 SUB PUSH0 DUP4 ADD MSTORE PUSH2 0x1339 DUP2 PUSH2 0x1300 JUMP JUMPDEST SWAP1 POP SWAP2 SWAP1 POP JUMP INVALID LOG2 PUSH5 0x6970667358 0x22 SLT KECCAK256 PUSH22 0xB9205E4489DFA82D6C901DC2735FD5444D9479F74901 CODESIZE 0x1E 0xB0 PUSH8 0x44C33D83B664736F PUSH13 0x634300081E0033000000000000 "
				},
				"gasEstimates": {
					"creation": {
						"codeDepositCost": "996400",
						"executionCost": "1032",
						"totalCost": "997432"
					},
					"external": {
						"buyTicket(uint256,uint256)": "infinite",
						"createEvent(string,uint256,uint256,uint256)": "infinite",
						"events(uint256)": "infinite",
						"nextID()": "2447",
						"tickets(address,uint256)": "infinite",
						"transferTickets(uint256,uint256,address)": "infinite"
					}
				},
				"methodIdentifiers": {
					"buyTicket(uint256,uint256)": "298ec208",
					"createEvent(string,uint256,uint256,uint256)": "0374ab0b",
					"events(uint256)": "0b791430",
					"nextID()": "1e96917d",
					"tickets(address,uint256)": "dae7a13c",
					"transferTickets(uint256,uint256,address)": "3d23eed9"
				}
			},
			"storageLayout": {
				"storage": [
					{
						"astId": 19,
						"contract": "solidity Project/Event Organization/Event.sol:EventContract",
						"label": "events",
						"offset": 0,
						"slot": "0",
						"type": "t_mapping(t_uint256,t_struct(Event)14_storage)"
					},
					{
						"astId": 25,
						"contract": "solidity Project/Event Organization/Event.sol:EventContract",
						"label": "tickets",
						"offset": 0,
						"slot": "1",
						"type": "t_mapping(t_address,t_mapping(t_uint256,t_uint256))"
					},
					{
						"astId": 27,
						"contract": "solidity Project/Event Organization/Event.sol:EventContract",
						"label": "nextID",
						"offset": 0,
						"slot": "2",
						"type": "t_uint256"
					}
				],
				"types": {
					"t_address": {
						"encoding": "inplace",
						"label": "address",
						"numberOfBytes": "20"
					},
					"t_mapping(t_address,t_mapping(t_uint256,t_uint256))": {
						"encoding": "mapping",
						"key": "t_address",
						"label": "mapping(address => mapping(uint256 => uint256))",
						"numberOfBytes": "32",
						"value": "t_mapping(t_uint256,t_uint256)"
					},
					"t_mapping(t_uint256,t_struct(Event)14_storage)": {
						"encoding": "mapping",
						"key": "t_uint256",
						"label": "mapping(uint256 => struct EventContract.Event)",
						"numberOfBytes": "32",
						"value": "t_struct(Event)14_storage"
					},
					"t_mapping(t_uint256,t_uint256)": {
						"encoding": "mapping",
						"key": "t_uint256",
						"label": "mapping(uint256 => uint256)",
						"numberOfBytes": "32",
						"value": "t_uint256"
					},
					"t_string_storage": {
						"encoding": "bytes",
						"label": "string",
						"numberOfBytes": "32"
					},
					"t_struct(Event)14_storage": {
						"encoding": "inplace",
						"label": "struct EventContract.Event",
						"members": [
							{
								"astId": 3,
								"contract": "solidity Project/Event Organization/Event.sol:EventContract",
								"label": "organizer",
								"offset": 0,
								"slot": "0",
								"type": "t_address"
							},
							{
								"astId": 5,
								"contract": "solidity Project/Event Organization/Event.sol:EventContract",
								"label": "name",
								"offset": 0,
								"slot": "1",
								"type": "t_string_storage"
							},
							{
								"astId": 7,
								"contract": "solidity Project/Event Organization/Event.sol:EventContract",
								"label": "date",
								"offset": 0,
								"slot": "2",
								"type": "t_uint256"
							},
							{
								"astId": 9,
								"contract": "solidity Project/Event Organization/Event.sol:EventContract",
								"label": "price",
								"offset": 0,
								"slot": "3",
								"type": "t_uint256"
							},
							{
								"astId": 11,
								"contract": "solidity Project/Event Organization/Event.sol:EventContract",
								"label": "ticketCount",
								"offset": 0,
								"slot": "4",
								"type": "t_uint256"
							},
							{
								"astId": 13,
								"contract": "solidity Project/Event Organization/Event.sol:EventContract",
								"label": "ticketRemain",
								"offset": 0,
								"slot": "5",
								"type": "t_uint256"
							}
						],
						"numberOfBytes": "192"
					},
					"t_uint256": {
						"encoding": "inplace",
						"label": "uint256",
						"numberOfBytes": "32"
					}
				}
			},
			"userdoc": {
				"kind": "user",
				"methods": {},
				"version": 1
			}
		}
	}
}