{
  "_format": "hh-sol-artifact-1",
  "contractName": "Token",
  "sourceName": "contracts/token.sol",
  "abi": [
    {
      "inputs": [],
      "stateMutability": "nonpayable",
      "type": "constructor"
    },
    {
      "inputs": [
        {
          "internalType": "address",
          "name": "account",
          "type": "address"
        }
      ],
      "name": "balanceOf",
      "outputs": [
        {
          "internalType": "uint256",
          "name": "",
          "type": "uint256"
        }
      ],
      "stateMutability": "view",
      "type": "function"
    },
    {
      "inputs": [
        {
          "internalType": "address",
          "name": "",
          "type": "address"
        }
      ],
      "name": "balances",
      "outputs": [
        {
          "internalType": "uint256",
          "name": "",
          "type": "uint256"
        }
      ],
      "stateMutability": "view",
      "type": "function"
    },
    {
      "inputs": [],
      "name": "name",
      "outputs": [
        {
          "internalType": "string",
          "name": "",
          "type": "string"
        }
      ],
      "stateMutability": "view",
      "type": "function"
    },
    {
      "inputs": [],
      "name": "owner",
      "outputs": [
        {
          "internalType": "address",
          "name": "",
          "type": "address"
        }
      ],
      "stateMutability": "view",
      "type": "function"
    },
    {
      "inputs": [],
      "name": "symbol",
      "outputs": [
        {
          "internalType": "string",
          "name": "",
          "type": "string"
        }
      ],
      "stateMutability": "view",
      "type": "function"
    },
    {
      "inputs": [],
      "name": "totalSupply",
      "outputs": [
        {
          "internalType": "uint256",
          "name": "",
          "type": "uint256"
        }
      ],
      "stateMutability": "view",
      "type": "function"
    },
    {
      "inputs": [
        {
          "internalType": "address",
          "name": "to",
          "type": "address"
        },
        {
          "internalType": "uint256",
          "name": "amount",
          "type": "uint256"
        }
      ],
      "name": "transfer",
      "outputs": [],
      "stateMutability": "nonpayable",
      "type": "function"
    }
  ],
  "bytecode": "0x60806040526040518060400160405280600d81526020017f4861726468617420746f6b656e0000000000000000000000000000000000000081525060009081610048919061037d565b506040518060400160405280600381526020017f48485400000000000000000000000000000000000000000000000000000000008152506001908161008d919061037d565b506127106002553480156100a057600080fd5b50600254600460003373ffffffffffffffffffffffffffffffffffffffff1673ffffffffffffffffffffffffffffffffffffffff1681526020019081526020016000208190555033600360006101000a81548173ffffffffffffffffffffffffffffffffffffffff021916908373ffffffffffffffffffffffffffffffffffffffff16021790555061044f565b600081519050919050565b7f4e487b7100000000000000000000000000000000000000000000000000000000600052604160045260246000fd5b7f4e487b7100000000000000000000000000000000000000000000000000000000600052602260045260246000fd5b600060028204905060018216806101ae57607f821691505b6020821081036101c1576101c0610167565b5b50919050565b60008190508160005260206000209050919050565b60006020601f8301049050919050565b600082821b905092915050565b6000600883026102297fffffffffffffffffffffffffffffffffffffffffffffffffffffffffffffffff826101ec565b61023386836101ec565b95508019841693508086168417925050509392505050565b6000819050919050565b6000819050919050565b600061027a6102756102708461024b565b610255565b61024b565b9050919050565b6000819050919050565b6102948361025f565b6102a86102a082610281565b8484546101f9565b825550505050565b600090565b6102bd6102b0565b6102c881848461028b565b505050565b5b818110156102ec576102e16000826102b5565b6001810190506102ce565b5050565b601f82111561033157610302816101c7565b61030b846101dc565b8101602085101561031a578190505b61032e610326856101dc565b8301826102cd565b50505b505050565b600082821c905092915050565b600061035460001984600802610336565b1980831691505092915050565b600061036d8383610343565b9150826002028217905092915050565b6103868261012d565b67ffffffffffffffff81111561039f5761039e610138565b5b6103a98254610196565b6103b48282856102f0565b600060209050601f8311600181146103e757600084156103d5578287015190505b6103df8582610361565b865550610447565b601f1984166103f5866101c7565b60005b8281101561041d578489015182556001820191506020850194506020810190506103f8565b8683101561043a5784890151610436601f891682610343565b8355505b6001600288020188555050505b505050505050565b6107f68061045e6000396000f3fe608060405234801561001057600080fd5b506004361061007d5760003560e01c806370a082311161005b57806370a08231146100ee5780638da5cb5b1461011e57806395d89b411461013c578063a9059cbb1461015a5761007d565b806306fdde031461008257806318160ddd146100a057806327e235e3146100be575b600080fd5b61008a610176565b60405161009791906104e1565b60405180910390f35b6100a8610204565b6040516100b5919061051c565b60405180910390f35b6100d860048036038101906100d3919061059a565b61020a565b6040516100e5919061051c565b60405180910390f35b6101086004803603810190610103919061059a565b610222565b604051610115919061051c565b60405180910390f35b61012661026b565b60405161013391906105d6565b60405180910390f35b610144610291565b60405161015191906104e1565b60405180910390f35b610174600480360381019061016f919061061d565b61031f565b005b600080546101839061068c565b80601f01602080910402602001604051908101604052809291908181526020018280546101af9061068c565b80156101fc5780601f106101d1576101008083540402835291602001916101fc565b820191906000526020600020905b8154815290600101906020018083116101df57829003601f168201915b505050505081565b60025481565b60046020528060005260406000206000915090505481565b6000600460008373ffffffffffffffffffffffffffffffffffffffff1673ffffffffffffffffffffffffffffffffffffffff168152602001908152602001600020549050919050565b600360009054906101000a900473ffffffffffffffffffffffffffffffffffffffff1681565b6001805461029e9061068c565b80601f01602080910402602001604051908101604052809291908181526020018280546102ca9061068c565b80156103175780601f106102ec57610100808354040283529160200191610317565b820191906000526020600020905b8154815290600101906020018083116102fa57829003601f168201915b505050505081565b80600460003373ffffffffffffffffffffffffffffffffffffffff1673ffffffffffffffffffffffffffffffffffffffff1681526020019081526020016000205410156103a1576040517f08c379a000000000000000000000000000000000000000000000000000000000815260040161039890610709565b60405180910390fd5b80600460003373ffffffffffffffffffffffffffffffffffffffff1673ffffffffffffffffffffffffffffffffffffffff16815260200190815260200160002060008282546103f09190610758565b9250508190555080600460008473ffffffffffffffffffffffffffffffffffffffff1673ffffffffffffffffffffffffffffffffffffffff1681526020019081526020016000206000828254610446919061078c565b925050819055505050565b600081519050919050565b600082825260208201905092915050565b60005b8381101561048b578082015181840152602081019050610470565b60008484015250505050565b6000601f19601f8301169050919050565b60006104b382610451565b6104bd818561045c565b93506104cd81856020860161046d565b6104d681610497565b840191505092915050565b600060208201905081810360008301526104fb81846104a8565b905092915050565b6000819050919050565b61051681610503565b82525050565b6000602082019050610531600083018461050d565b92915050565b600080fd5b600073ffffffffffffffffffffffffffffffffffffffff82169050919050565b60006105678261053c565b9050919050565b6105778161055c565b811461058257600080fd5b50565b6000813590506105948161056e565b92915050565b6000602082840312156105b0576105af610537565b5b60006105be84828501610585565b91505092915050565b6105d08161055c565b82525050565b60006020820190506105eb60008301846105c7565b92915050565b6105fa81610503565b811461060557600080fd5b50565b600081359050610617816105f1565b92915050565b6000806040838503121561063457610633610537565b5b600061064285828601610585565b925050602061065385828601610608565b9150509250929050565b7f4e487b7100000000000000000000000000000000000000000000000000000000600052602260045260246000fd5b600060028204905060018216806106a457607f821691505b6020821081036106b7576106b661065d565b5b50919050565b7f4e6f7420656e6f75676820746f6b656e73000000000000000000000000000000600082015250565b60006106f360118361045c565b91506106fe826106bd565b602082019050919050565b60006020820190508181036000830152610722816106e6565b9050919050565b7f4e487b7100000000000000000000000000000000000000000000000000000000600052601160045260246000fd5b600061076382610503565b915061076e83610503565b925082820390508181111561078657610785610729565b5b92915050565b600061079782610503565b91506107a283610503565b92508282019050808211156107ba576107b9610729565b5b9291505056fea2646970667358221220e2c6b842452ff967f6c331e33cd2b8a08dab59ca4d07c68a7c35eab3ee4e8fd464736f6c634300081c0033",
  "linkReferences": {},
  "deployedLinkReferences": {}
}